:020000040800F2
:1000000000000220350A0108A9000108B700010814
:10001000BD000108C3000108C9000108000000007C
:10002000000000000000000000000000815F0008E8
:10003000CF00010800000000C1610008DD000108D8
:10004000850A0108850A0108850A0108850A010850
:10005000850A0108850A0108850A0108850A010840
:10006000850A0108850A0108850A0108850A010830
:10007000850A0108850A0108850A0108850A010820
:10008000850A0108850A0108850A010800000000A8
:10009000000000000000000000000000850A0108C8
:1000A000850A0108E9000108850A0108850A010896
:1000B000850A0108850A0108850A0108850A0108E0
:1000C000850A0108850A0108850A0108850A0108D0
:1000D000850A0108850A0108850A01080000000058
:1000E000850A0108850A0108850A01080000000048
:1000F000000000000000000000000000850A010868
:1001000000000000850A0108850A0108850A010827
:1001100000000000000000000000000000000000DF
:10012000850A0108850A0108850A0108850A01086F
:10013000850A010800000000000000000000000027
:10014000000000000000000000000000FD000108A9
:10015000850A0108850A0108850A0108850A01083F
:10016000850A0108850A010800000000000000005F
:10017000000000000000000000000000000000007F
:1001800000000000850A01080000000000000000D7
:08019000850A0108850A010837
:1001A00010B5054C237833B9044B13B10448AFF3B1
:1001B00000800123237010BDC80200200000000051
:1001C000B00D010808B5034B1BB103490348AFF359
:1001D000008008BD00000000CC020020B00D010826
:1001E000034613F8012B002AFBD1181A0138704777
:1001F00053B94AB9002908BF00281CBF4FF0FF318E
:100200004FF0FF3000F07AB9ADF1080C6DE904CE83
:1002100000F006F8DDF804E0DDE9022304B07047E1
:100220002DE9F0478C460D460446089E002B51D11F
:100230008A4217466DD9B2FA82FEBEF1000F0BD08A
:10024000CEF1200C01FA0EF520FA0CFC02FA0EF7A2
:100250004CEA050C00FA0EF44FEA174A250CBCFBD9
:10026000FAF81FFA87F90AFB18CC45EA0C4508FB97
:1002700009F3AB420AD9ED1908F1FF3280F023816E
:10028000AB4240F22081A8F102083D44ED1AA4B22D
:10029000B5FBFAF00AFB105544EA054400FB09F9E6
:1002A000A14509D9E41900F1FF3380F00A81A14585
:1002B00040F2078102383C44A4EB090440EA0840BC
:1002C0000021002E61D024FA0EF400233460736004
:1002D000BDE8F0878B4207D9002E54D0002186E874
:1002E00021000846BDE8F087B3FA83F1002940F009
:1002F0008E80AB4202D3824200F2FA80841A65EB10
:1003000003050120AC46002E3FD086E81010BDE862
:10031000F08712B90127B7FBF2F7B7FA87FEBEF1F3
:10032000000F34D1EB1B3A0C1FFA87FC0121B3FB01
:10033000F2F8250C02FB183345EA03450CFB08F3E1
:10034000AB4207D9ED1908F1FF3002D2AB4200F2FF
:10035000D1808046ED1AA3B2B5FBF2F002FB105536
:1003600043EA05440CFB00FCA44507D9E41900F15D
:10037000FF3302D2A44500F2B8801846A4EB0C0467
:1003800040EA08409DE731463046BDE8F087CEF1AF
:10039000200405FA0EF307FA0EF720FA04F83A0CD7
:1003A00025FA04F448EA0308B4FBF2F14FEA1845D1
:1003B00002FB11441FFA87FC45EA044501FB0CF3DC
:1003C000AB4200FA0EF409D9ED1901F1FF3080F0CB
:1003D0008A80AB4240F2878002393D44EB1A1FFA13
:1003E00088F5B3FBF2F002FB103345EA034500FB4E
:1003F0000CF3AB4207D9ED1900F1FF386FD2AB42D5
:100400006DD902383D44EB1A40EA01418FE7C1F152
:10041000200722FA07F88B4005FA01F448EA0303A3
:1004200020FA07FE4FEA134CFD404EEA040EB5FBDE
:10043000FCF94FEA1E440CFB19551FFA83F844EAF5
:10044000054509FB08F4AC4202FA01F200FA01FA90
:1004500008D9ED1809F1FF3043D2AC4241D9A9F1D6
:1004600002091D442D1B1FFA8EFEB5FBFCF00CFB90
:1004700010554EEA054400FB08F8A04507D9E418DA
:1004800000F1FF3529D2A04527D902381C4440EAA3
:100490000940A4EB0804A0FB02894C45C6464D4622
:1004A00015D312D056B1BAEB0E0364EB050404FA6F
:1004B00007F7CB401F43CC40376074600021BDE894
:1004C000F0871846F8E69046E0E6C245EAD2B8EB77
:1004D000020E69EB03050138E4E72846D7E74046FA
:1004E00091E78146BEE7014678E702383C4445E79C
:1004F000084608E7A8F102083D442BE7704700BF13
:1005000080B500AF0E4A0E4B1B6843F400731360B6
:100510000B4A0B4B1B6843F480631360084A084B7B
:100520001B6843F480731360032000F017F9002068
:100530000FF062FD0FF00EFD0023184680BD00BFD6
:10054000003C024080B400AF064B1B781A46064BB5
:100550001B681344044A136000BFBD465DF8047B6A
:10056000704700BF00000020FC45002080B400AFB1
:10057000034B1B681846BD465DF8047B704700BFFF
:10058000FC45002080B584B000AF7860FFF7EEFF37
:10059000B8607B68FB60FB68B3F1FF3F05D0094B97
:1005A0001B781A46FB681344FB6000BFFFF7DEFFB1
:1005B0000246BB68D21AFB689A42F7D300BF1037D5
:1005C000BD4680BD0000002080B485B000AF7860DB
:1005D0007B6803F00703FB600C4BDB68BB60BA6809
:1005E0004FF6FF031340BB60FB681A02BB6813435E
:1005F00043F0BF6343F40033BB60044ABB68D3607D
:1006000000BF1437BD465DF8047B704700ED00E085
:1006100080B400AF044BDB681B0A03F007031846E5
:10062000BD465DF8047B704700ED00E080B483B008
:1006300000AF0346FB71094997F907305B09FA7966
:1006400002F01F02012000FA02F241F8232000BF4D
:100650000C37BD465DF8047B704700BF00E100E049
:1006600080B483B000AF03463960FB7197F907305F
:10067000002B0BDA0D49FB7903F00F03043B3A68BA
:10068000D2B21201D2B20B441A7609E0084997F9A6
:1006900007303A68D2B21201D2B20B4483F8002379
:1006A00000BF0C37BD465DF8047B704700ED00E0ED
:1006B00000E100E080B489B000AFF860B9607A6012
:1006C000FB6803F00703FB61FB69C3F10703042B1D
:1006D00028BF0423BB61FB690433062B02D9FB69E5
:1006E000033B00E000237B610122BB6902FA03F3B4
:1006F0005A1EBB681A407B699A4001217B6901FA46
:1007000003F3591E7B680B40134318462437BD463C
:100710005DF8047B7047000080B582B000AF786060
:100720007B68013BB3F1807F01D301230FE00A4ACC
:100730007B68013B53600F214FF0FF30FFF790FFC4
:10074000054B00229A60044B07221A6000231846CA
:100750000837BD4680BD00BF10E000E080B582B024
:1007600000AF78607868FFF72FFF00BF0837BD46FD
:1007700080BD80B586B000AF0346B9607A60FB7378
:1007800000237B61FFF744FF78617A68B968786974
:10079000FFF790FF024697F90F3011461846FFF712
:1007A0005FFF00BF1837BD4680BD80B582B000AF87
:1007B0000346FB7197F907301846FFF737FF00BF74
:1007C0000837BD4680BD80B582B000AF78607868DC
:1007D000FFF7A2FF034618460837BD4680BD00005C
:1007E00080B483B000AF78607B68042B06D1094ADF
:1007F000084B1B6843F00403136005E0054A054BF2
:100800001B6823F00403136000BF0C37BD465DF87E
:10081000047B704710E000E080B489B000AF7860DE
:10082000396000237B6100233B610023BB6100230F
:10083000FB6159E10122FB6902FA03F37B613B682A
:100840001A687B6913403B613A697B699A4240F0C0
:1008500048813B685B68022B03D03B685B68122BC6
:1008600023D1FB69DA087B68083253F82230BB6178
:10087000FB6903F007039B000F2202FA03F3DB433B
:10088000BA691340BB613B681A69FB6903F007034F
:100890009B0002FA03F3BA691343BB61FB69DA08F0
:1008A0007B680832B96943F822107B681B68BB611A
:1008B000FB695B00032202FA03F3DB43BA691340CE
:1008C000BB613B685B6803F00302FB695B0002FAF3
:1008D00003F3BA691343BB617B68BA691A603B686A
:1008E0005B68012B0BD03B685B68022B07D03B6831
:1008F0005B68112B03D03B685B68122B30D17B689F
:100900009B68BB61FB695B00032202FA03F3DB43D4
:10091000BA691340BB613B68DA68FB695B0002FAA5
:1009200003F3BA691343BB617B68BA699A607B6859
:100930005B68BB610122FB6902FA03F3DB43BA691E
:100940001340BB613B685B681B0903F00102FB6954
:1009500002FA03F3BA691343BB617B68BA695A6050
:100960007B68DB68BB61FB695B00032202FA03F36F
:10097000DB43BA691340BB613B689A68FB695B0063
:1009800002FA03F3BA691343BB617B68BA69DA60A0
:100990003B685B6803F08053002B00F0A2800023CB
:1009A000FB60564A554B5B6C43F480435364534B96
:1009B0005B6C03F48043FB60FB68514AFB699B0856
:1009C000023352F82330BB61FB6903F003039B0041
:1009D0000F2202FA03F3DB43BA691340BB617B6861
:1009E000484A934219D07B68474A934213D07B68A8
:1009F000464A93420DD07B68454A934207D07B68B4
:100A0000444A934201D1042308E0072306E003236C
:100A100004E0022302E0012300E00023FA6902F06F
:100A2000030292009340BA691343BB613449FB69E6
:100A30009B080233BA6941F82320374B1B68BB611E
:100A40003B69DB43BA691340BB613B685B6803F4F5
:100A50008033002B03D0BA693B691343BB612E4A34
:100A6000BB6913602C4B5B68BB613B69DB43BA69B4
:100A70001340BB613B685B6803F40033002B03D079
:100A8000BA693B691343BB61234ABB695360224B7C
:100A90009B68BB613B69DB43BA691340BB613B6840
:100AA0005B6803F48013002B03D0BA693B691343DE
:100AB000BB61194ABB699360174BDB68BB613B693B
:100AC000DB43BA691340BB613B685B6803F4001306
:100AD000002B03D0BA693B691343BB610E4ABB6963
:100AE000D360FB690133FB61FB690F2B7FF6A2AE7C
:100AF00000BF2437BD465DF8047B704700380240D4
:100B0000003801400000024000040240000802409A
:100B1000000C024000100240003C0140F0B58FB0D4
:100B20000AAF78600023FB607B68002B01D10123B2
:100B3000F7E07B68032283F8B92378680FF034FB71
:100B40007B681B68184601F069FF7B681B683B6087
:100B50007E686D4606F110040FCC0FC50FCC0FC593
:100B600094E8030085E80300331D0ECB386801F0DC
:100B7000F3FE7B681B680021184601F060FF00232C
:100B8000FB604CE07968FA681346DB009B1A9B0017
:100B90000B44393301221A70FB68D8B27968FA68BD
:100BA0001346DB009B1A9B000B44383302461A7035
:100BB000FB6898B27968FA681346DB009B1A9B00C1
:100BC0000B443E3302461A807968FA681346DB000C
:100BD0009B1A9B000B443B3300221A707968FA6819
:100BE0001346DB009B1A9B000B44403300221A6023
:100BF0007968FA681346DB009B1A9B000B44443368
:100C000000221A607968FA681346DB009B1A9B0081
:100C10000B444C3300221A60FB680133FB60FB6815
:100C20000E2BAFD90023FB605AE07968FA681346AF
:100C3000DB009B1A9B000B4403F2F91300221A708D
:100C4000FB68D8B27968FA681346DB009B1A9B00F0
:100C50000B4403F5FC7302461A70FB6898B279687E
:100C6000FA681346DB009B1A9B000B443E33024696
:100C70001A807968FA681346DB009B1A9B000B44C4
:100C800003F2FB1300221A707968FA681346DB003E
:100C90009B1A9B000B4403F5007300221A607968CD
:100CA000FA681346DB009B1A9B000B4403F50173A3
:100CB00000221A607968FA681346DB009B1A9B00D1
:100CC0000B4403F5037300221A607B681A68FB6803
:100CD00040339B00134400225A60FB680133FB60E1
:100CE000FB680E2BA1D97B681B683B607E686D4654
:100CF00006F110040FCC0FC50FCC0FC594E803000C
:100D000085E80300331D0ECB386801F0BFFE7B6819
:100D1000012283F8B9237B681B68184602F0E0FEC5
:100D2000002318461437BD46F0BD80B582B000AF31
:100D300078607B6893F8B833012B01D1022312E06D
:100D40007B68012283F8B8237B681B68184602F091
:100D5000B0FE7B681B68184601F04FFE7B680022DE
:100D600083F8B823002318460837BD4680BD00002D
:100D700080B58CB000AF78607B681B683B62002355
:100D8000FB620023BB620023FB6100237B62002324
:100D9000BB6100237B617C4B3B617B681B68184611
:100DA00002F040FF0346002B40F068847B681B681C
:100DB000184602F0ACFE0346002B00F05E847B6810
:100DC0001B68184602F0A3FE034603F00203022B41
:100DD00007D17B681B687A681268526902F00202C8
:100DE0005A617B681B68184602F091FE034603F4C3
:100DF0000023B3F5002F40F0B28000237B627B68B4
:100E00001B68184602F098FEB862A4E0BB6A03F0C3
:100E10000103002B00F099807B681B687A6AD2B2CC
:100E20001146184602F0B8FEF861FB6903F00103B1
:100E3000002B6BD07B6A5A013B6A134403F5306385
:100E40001A46012393607B681B69012B3CD17968AA
:100E50007A6A1346DB009B1A9B000B4403F5007370
:100E60001A687B6A59013B6A0B4403F530631B69BE
:100E7000C3F31203D11A78687A6A1346DB009B1A0F
:100E80009B00034403F50473196079687A6A13467A
:100E9000DB009B1A9B000B4403F50173196878680B
:100EA0007A6A1346DB009B1A9B00034403F5007328
:100EB0001B68194478687A6A1346DB009B1A9B000A
:100EC000034403F5017319607B6ADBB21946786845
:100ED0000FF0C8F97B681B69012B17D17B6A002BC7
:100EE00014D179687A6A1346DB009B1A9B000B4485
:100EF00003F503731B68002B08D17B6818687B68B7
:100F000003F56F731A46012102F0D0FEFB6903F06E
:100F10000803002B0BD078680FF092F97B6A5A0116
:100F20003B6A134403F530631A4608239360FB6958
:100F300003F01003002B08D07B6A5A013B6A13446C
:100F400003F530631A46102393607B6A01337B629A
:100F5000BB6A5B08BB62BB6A002B7FF457AF7B6840
:100F60001B68184602F0D3FD034603F48023B3F553
:100F7000802F40F0C5807B681B68184602F0F4FDA6
:100F8000B86200237B62B7E00095BA0ABB6A03F03F
:100F90000103002B00F0AA807B681B687A6AD2B23A
:100FA0001146184602F014FEF861FB6903F00103D4
:100FB000002B5AD001227B6A02FA03F3BB613B6A21
:100FC00003F5006319463B6A03F500635A6BBB697E
:100FD000DB4313404B637B6A5A013B6A134403F5BE
:100FE00010631A46012393607B681B69012B1BD198
:100FF00079687A6A1346DB009B1A9B000B444433E2
:10100000196878687A6A1346DB009B1A9B000344D0
:1010100040331B68194478687A6A1346DB009B1AD0
:101020009B000344443319607B6ADBB2194678683D
:101030000FF033F97B681B69012B16D17B6A002BFB
:1010400013D179687A6A1346DB009B1A9B000B4424
:101050004C331B68002B08D17B6818687B6803F54C
:101060006F731A46012102F021FEFB6903F00803A9
:10107000002B08D07B6A5A013B6A134403F51063C6
:101080001A4608239360FB6903F01003002B08D075
:101090007B6A5A013B6A134403F510631A46102316
:1010A0009360FB6903F04003002B08D07B6A5A0170
:1010B0003B6A134403F510631A4640239360FB69AF
:1010C00003F00203002B08D07B6A5A013B6A1344E9
:1010D00003F510631A4602239360FB6903F0800353
:1010E000002B03D0796A786800F0F1FC7B6A013349
:1010F0007B62BB6A5B08BB62BB6A002B7FF446AFB6
:101100007B681B68184602F002FD034603F00043AB
:10111000B3F1004F15D13B6A03F500631A463B6AF1
:1011200003F500635B6823F00103536078680FF0F8
:101130002DF97B681B687A681268526902F00042D8
:101140005A617B681B68184602F0E1FC034603F411
:101150000063B3F5006F12D13B6A03F500639B682F
:1011600003F00103012B02D178680FF0E7F87B68E8
:101170001B687A681268526902F400625A617B68DF
:101180001B68184602F0C3FC034603F48053B3F512
:10119000805F40F091803B6A03F500631A463B6A2A
:1011A00003F500635B6823F0010353607B681B68F1
:1011B0001021184601F09CFD0023FB6214E0FB6A3D
:1011C0005A013B6A134403F510631A46FF239360E8
:1011D000FB6A5A013B6A134403F530631A46FF2346
:1011E0009360FB6A0133FB627B685A68FB6A9A4230
:1011F000E5D83B6A03F500631A464FF0FF3393616D
:101200003B6A03F500631A463B6A03F50063DB693A
:1012100043F00113D3617B681B6B002B18D03B6A32
:1012200003F500631A463B6A03F50063D3F8843084
:1012300043F00B03C2F884303B6A03F500631A469F
:101240003B6A03F500635B6C43F00B03536415E0EA
:101250003B6A03F500631A463B6A03F500635B696A
:1012600043F00B0353613B6A03F500631A463B6A84
:1012700003F500631B6943F00B0313613B6A03F53D
:1012800000631A463B6A03F500631B6823F4FE63A0
:1012900013607B6818687B681B69D9B27B6803F5AB
:1012A0006F731A4602F002FD7B681B687A68126849
:1012B000526902F480525A617B681B68184602F03A
:1012C00026FC034603F40053B3F5005F40F0DA80D8
:1012D0007B681B68184602F0B3FC7B681B687A6861
:1012E0001268D26822F47052DA607B681B68184674
:1012F00001F05EFD0346002B0FD17B680022DA600F
:101300007B684FF400725A617B681B687A681268C8
:10131000D26842F41052DA60A9E07B680322DA60F6
:101320007B6840225A6101F0ADF838613B697B4A25
:1013300093420CD93B697A4A934208D87B681B6870
:101340007A681268D26842F47052DA608FE03B69C2
:10135000734A93420CD93B69724A934208D87B681E
:101360001B687A681268D26842F46052DA607EE0E4
:101370003B696C4A93420CD93B696B4A934208D84B
:101380007B681B687A681268D26842F45052DA604F
:101390006DE03B69644A93420CD93B69634A9342CE
:1013A00008D87B681B687A681268D26842F4405299
:1013B000DA605CE03B695D4A93420CD93B695C4A68
:1013C000934208D87B681B687A681268D26842F436
:1013D0003052DA604BE03B69554A93420CD93B6985
:1013E000544A934208D87B681B687A681268D268AE
:1013F00042F42052DA603AE03B694E4A93420CD9FB
:101400003B694D4A934208D87B681B687A6812682A
:10141000D26842F41052DA6029E03B69464A9342AE
:101420000CD93B69454A934208D87B681B687A68A7
:101430001268D26842F40052DA6018E03B693F4A11
:1014400093420CD93B693E4A934208D87B681B689B
:101450007A681268D26842F4E052DA6007E07B688A
:101460001B687A681268D26842F4C052DA60786801
:101470000EF03BFF7B681B687A681268526902F4C1
:1014800000525A617B681B68184602F040FB034615
:1014900003F01003102B74D17B681B687A68126804
:1014A000926922F010029A613B6A1B6A7B617B6938
:1014B00003F00F021346DB009B1A9B0003F5FC733D
:1014C0007A681344FB607B695B0C03F00F03022B0B
:1014D00038D17A6947F6F0731340002B49D0FB6886
:1014E000D9687B691B099BB2C3F30A039BB21A46F6
:1014F000386A02F0B3F9FB68DA687B691B09C3F349
:101500000A031A44FB68DA60FB689A697B691B0965
:10151000C3F30A031A44FB689A612AE0BFACD800FF
:10152000BFE1E400FF23F4007F7306019F491A0125
:10153000FF2C31013FA44C01FF356E011FABA6010A
:10154000FF47E8017B695B0C03F00F03062B10D10A
:101550007B6803F56F7308221946386A02F07EF93A
:10156000FB689A697B691B09C3F30A031A44FB6889
:101570009A617B681B687A681268926942F010026F
:101580009A617B681B68184602F0C1FA034603F0B3
:101590000803082B0AD178680EF099FE7B681B6857
:1015A0007A681268526902F008025A617B681B6807
:1015B000184602F0ACFA034603F48013B3F5801F1B
:1015C0000DD17B6ADBB2194678680EF0FFFE7B68AE
:1015D0001B687A681268526902F480125A617B684B
:1015E0001B68184602F093FA034603F40013B3F5A0
:1015F000001F0DD17B6ADBB2194678680EF0D4FE6D
:101600007B681B687A681268526902F400125A619A
:101610007B681B68184602F07AFA034603F08043A1
:10162000B3F1804F0AD178680EF0E2FE7B681B6848
:101630007A681268526902F080425A617B681B68BE
:10164000184602F064FA034603F00403042B15D194
:101650007B681B685B687B617B6903F00403002B7C
:1016600002D078680EF0D2FE7B681B687A68126838
:1016700051687A690A435A6000E000BF3037BD46BE
:1016800080BD00BF80B582B000AF78600B46FB70B4
:101690007B6893F8B833012B01D102230FE07B68FC
:1016A000012283F8B8237B681B68FA781146184634
:1016B00002F0D9F97B68002283F8B823002318468A
:1016C0000837BD4680BD80B584B000AF786008465D
:1016D00011461A460346FB700B463B801346BB700F
:1016E0000023FB7297F90330002B0BDAFB7803F031
:1016F0007F021346DB009B1A9B0038337A68134441
:10170000FB600BE0FB7803F07F021346DB009B1AC3
:101710009B0003F5FC737A681344FB60FB7803F0CD
:101720007F03DAB2FB681A7097F90330DBB2DB098A
:10173000DBB21A46FB685A703A88FB689A60FB680D
:10174000BA78DA70FB685B78002B04D0FB681B78F2
:101750009AB2FB68DA80BB78022B02D1FB680022C8
:101760001A717B6893F8B833012B01D102230EE084
:101770007B68012283F8B8237B681B68F9681846E8
:1017800001F04BFB7B68002283F8B823FB7A1846F4
:101790001037BD4680BD80B584B000AF78600B4681
:1017A000FB7097F90330002B0BDAFB7803F07F0214
:1017B0001346DB009B1A9B0038337A681344FB60A6
:1017C0000BE0FB7803F07F021346DB009B1A9B00C3
:1017D00003F5FC737A681344FB60FB7803F07F0326
:1017E000DAB2FB681A7097F90330DBB2DB09DBB2BF
:1017F0001A46FB685A707B6893F8B833012B01D105
:1018000002230EE07B68012283F8B8237B681B6803
:10181000F968184601F08AFB7B68002283F8B82338
:10182000002318461037BD4680BD80B586B000AF96
:10183000F8607A603B600B46FB72FB7A03F07F0234
:101840001346DB009B1A9B0003F5FC73FA681344F4
:101850007B617B697A68DA607B693A685A617B6987
:1018600000229A617B6900225A70FB7A03F07F03A1
:10187000DAB27B691A70FB681B69012B02D17A68A6
:101880007B691A61FB7A03F07F03002B09D1FB68A7
:101890001868FB681B69DBB21A46796901F04AFED9
:1018A00008E0FB681868FB681B69DBB21A467969B7
:1018B00001F0FEFB002318461837BD4680BD80B4FA
:1018C00083B000AF78600B46FB70FB7803F00F022B
:1018D00079681346DB009B1A9B000B4403F50473E5
:1018E0001B689BB218460C37BD465DF8047B7047F9
:1018F00080B586B000AFF8607A603B600B46FB7243
:10190000FB7A03F07F021346DB009B1A9B003833FF
:10191000FA6813447B617B697A68DA607B693A68AC
:101920005A617B6900229A617B6901225A70FB7AB5
:1019300003F07F03DAB27B691A70FB681B69012B25
:1019400002D17A687B691A61FB7A03F07F03002B6E
:1019500009D1FB681868FB681B69DBB21A46796914
:1019600001F0E8FD08E0FB681868FB681B69DBB262
:101970001A46796901F09CFB002318461837BD46CA
:1019800080BD80B584B000AF78600B46FB7097F9DE
:101990000330002B0BDAFB7803F07F021346DB00E9
:1019A0009B1A9B0038337A681344FB6009E0FA788D
:1019B0001346DB009B1A9B0003F5FC737A68134403
:1019C000FB60FB6801229A70FB7803F07F03DAB2B8
:1019D000FB681A7097F90330DBB2DB09DBB21A46F9
:1019E000FB685A707B6893F8B833012B01D102234E
:1019F0001EE07B68012283F8B8237B681B68F968C6
:101A0000184601F052FFFB7803F07F03002B0AD148
:101A10007B6818687B681B69D9B27B6803F56F73B4
:101A20001A4602F043F97B68002283F8B8230023AA
:101A300018461037BD4680BD80B584B000AF7860D1
:101A40000B46FB7097F90330002B0BDAFB7803F0A1
:101A50007F021346DB009B1A9B0038337A681344DD
:101A6000FB6009E0FA781346DB009B1A9B0003F544
:101A7000FC737A681344FB60FB6800229A70FB7861
:101A800003F07F03DAB2FB681A7097F90330DBB218
:101A9000DB09DBB21A46FB685A707B6893F8B833EF
:101AA000012B01D102230EE07B68012283F8B823C9
:101AB0007B681B68F968184601F068FF7B680022A4
:101AC00083F8B823002318461037BD4680BD80B583
:101AD0008AB002AF786039607B681B687B61002345
:101AE000FB6100233B613A681346DB009B1A9B00B5
:101AF00038337A681344FB60FB685A69FB689B695A
:101B0000D31AFB61FB689A68FB699A4202D2FB68B0
:101B10009B68FB61FB6903339B08BB612BE0FB689F
:101B20005A69FB689B69D31AFB61FB689A68FB6979
:101B30009A4202D2FB689B68FB61FB6903339B08F6
:101B4000BB61FB68D9683B68DAB2FB6998B27B6815
:101B50001B69DBB200930346786901F04AFEFB681B
:101B6000DA68FB691A44FB68DA60FB689A69FB690A
:101B70001A44FB689A613B685A017B69134403F578
:101B800010639B699AB2BB699A4209D9FB689A694A
:101B9000FB685B699A4203D2FB685B69002BBED18C
:101BA000FB69002B10D101223B6802FA03F33B6171
:101BB0007B6903F5006319467B6903F500635A6B83
:101BC0003B69DB4313404B63002318462037BD4677
:101BD00080BD80B485B000AF78600B46FB701346C3
:101BE0003B800023FB730023BB607B681B685B6A40
:101BF000BB60FB78002B07D17B681B683A88110417
:101C0000BA680A439A6228E07B681B689B6A1B0CCF
:101C1000BA681344BB600023FB730DE07B681A684D
:101C2000FB7B40339B0013445B681B0CBA68134476
:101C3000BB60FB7B0133FB73FA7BFB78013B9A4271
:101C4000ECDB7B681968FB78013B3A881004BA68C2
:101C5000024340339B000B445A600023184614375C
:101C6000BD465DF8047B704780B483B000AF7860F8
:101C70000B467B807B681B687A885A620023184673
:101C80000C37BD465DF8047B7047000080B586B018
:101C900000AF78607B68002B01D101232DE27B68C7
:101CA0001B6803F00103002B75D0A34B9B6803F066
:101CB0000C03042B0CD0A04B9B6803F00C03082BE7
:101CC00012D19D4B5B6803F48003B3F5800F0BD1F9
:101CD000994B1B6803F40033002B5BD07B685B6877
:101CE000002B57D1012308E27B685B68B3F5803F86
:101CF00006D1914A904B1B6843F4803313601DE07A
:101D00007B685B68B3F5A02F0CD18B4A8A4B1B68AC
:101D100043F480231360884A874B1B6843F4803365
:101D200013600BE0844A844B1B6823F480331360F8
:101D3000814A814B1B6823F4802313607B685B68B6
:101D4000002B13D0FEF712FC386108E0FEF70EFC02
:101D500002463B69D31A642B01D90323CDE1764BAC
:101D60001B6803F40033002BF0D014E0FEF7FEFBF9
:101D7000386108E0FEF7FAFB02463B69D31A642B90
:101D800001D90323B9E16C4B1B6803F40033002B2A
:101D9000F0D100E000BF7B681B6803F00203002B5A
:101DA00063D0654B9B6803F00C03002B0BD0624B98
:101DB0009B6803F00C03082B1CD15F4B5B6803F49A
:101DC0008003002B16D15C4B1B6803F00203002B31
:101DD00005D07B68DB68012B01D001238DE15649DA
:101DE000554B1B6823F0F8027B681B69DB0013432B
:101DF0000B603AE07B68DB68002B20D04F4B012260
:101E00001A60FEF7B3FB386108E0FEF7AFFB02464D
:101E10003B69D31A022B01D903236EE1464B1B68A1
:101E200003F00203002BF0D04349434B1B6823F01F
:101E3000F8027B681B69DB0013430B6015E03F4B26
:101E400000221A60FEF792FB386108E0FEF78EFB75
:101E500002463B69D31A022B01D903234DE1364BCD
:101E60001B6803F00203002BF0D17B681B6803F0B2
:101E70000803002B30D07B685B69002B16D0304BF9
:101E800001221A60FEF772FB386108E0FEF76EFB74
:101E900002463B69D31A022B01D903232DE1264BBD
:101EA0005B6F03F00203002BF0D015E0244B0022FF
:101EB0001A60FEF75BFB386108E0FEF757FB02464D
:101EC0003B69D31A022B01D9032316E11A4B5B6F2E
:101ED00003F00203002BF0D17B681B6803F00403BE
:101EE000002B00F0A0800023FB75134B1B6C03F04C
:101EF0008053002B0FD10023FB600F4A0E4B1B6C4D
:101F000043F0805313640C4B1B6C03F08053FB6055
:101F1000FB680123FB750B4B1B6803F48073002BDC
:101F200021D1084A074B1B6843F480731360FEF706
:101F30001DFB386111E000BF00380240000047423D
:101F4000800E474200700040FEF710FB02463B69DE
:101F5000D31A022B01D90323CFE06A4B1B6803F489
:101F60008073002BF0D07B689B68012B06D1664AFA
:101F7000654B1B6F43F0010313671CE07B689B6894
:101F8000052B0CD1604A604B1B6F43F004031367B1
:101F90005D4A5D4B1B6F43F0010313670BE05A4A28
:101FA000594B1B6F23F001031367574A564B1B6FA6
:101FB00023F0040313677B689B68002B15D0FEF7A2
:101FC000D5FA38610AE0FEF7D1FA02463B69D31A26
:101FD00041F28832934201D903238EE04A4B1B6FB2
:101FE00003F00203002BEED014E0FEF7BFFA3861D5
:101FF0000AE0FEF7BBFA02463B69D31A41F2883287
:10200000934201D9032378E03F4B1B6F03F0020397
:10201000002BEED1FB7D012B05D13B4A3A4B1B6CCB
:1020200023F0805313647B689B69002B64D0364B8C
:102030009B6803F00C03082B5CD07B689B69022B28
:1020400041D1324B00221A60FEF790FA386108E065
:10205000FEF78CFA02463B69D31A022B01D90323FF
:102060004BE0294B1B6803F00073002BF0D126498D
:102070007B68DA697B681B6A1A437B685B6A9B0131
:102080001A437B689B6A5B08013B1B041A437B680D
:10209000DB6A1B0613434B601C4B01221A60FEF7E0
:1020A00065FA386108E0FEF761FA02463B69D31A27
:1020B000022B01D9032320E0134B1B6803F00073AC
:1020C000002BF0D018E0114B00221A60FEF74EFAF8
:1020D000386108E0FEF74AFA02463B69D31A022B40
:1020E00001D9032309E0084B1B6803F00073002BA0
:1020F000F0D101E0012300E0002318461837BD4667
:1021000080BD00BF007000400038024060004742C0
:1021100080B584B000AF786039607B68002B01D156
:102120000123CAE0674B1B6803F00F023B689A4229
:102130000CD2644B3A68D2B21A70624B1B6803F03F
:102140000F023B689A4201D00123B6E07B681B680E
:1021500003F00203002B20D07B681B6803F004030C
:10216000002B05D0584A584B9B6843F4E0539360CA
:102170007B681B6803F00803002B05D0524A524BC2
:102180009B6843F4604393604F494F4B9B6823F037
:10219000F0027B689B6813438B607B681B6803F0CD
:1021A0000103002B44D07B685B68012B07D1464BB1
:1021B0001B6803F40033002B19D101237DE07B68F9
:1021C0005B68022B03D07B685B68032B07D13E4B17
:1021D0001B6803F00073002B09D101236DE03A4B1B
:1021E0001B6803F00203002B01D1012365E036498F
:1021F000354B9B6823F003027B685B6813438B605D
:10220000FEF7B4F9F8600AE0FEF7B0F90246FB68A1
:10221000D31A41F28832934201D903234DE02A4B6D
:102220009B6803F00C027B685B689B009A42EBD1D1
:10223000244B1B6803F00F023B689A420CD9214BD8
:102240003A68D2B21A701F4B1B6803F00F023B684A
:102250009A4201D0012330E07B681B6803F004033D
:10226000002B08D01849184B9B6823F4E0527B6878
:10227000DB6813438B607B681B6803F00803002B4B
:1022800009D01149104B9B6823F460427B681B699D
:10229000DB0013438B6000F01DF801460A4B9B687E
:1022A0001B0903F00F03094AD35C21FA03F3084A20
:1022B000136000200DF0A0FE002318461037BD4625
:1022C00080BD00BF003C024000380240A80F01085A
:1022D000C00000202DE9F04F8FB000AF0023FB625B
:1022E00000237B630023BB6200233B63624B9B683C
:1022F00003F00C03042B07D0082B08D0002B40F070
:10230000B2805E4B3B63B1E05D4B3B63AEE05A4B4A
:102310005B6803F03F03FB62574B5B6803F4800389
:10232000002B4ED0544B5B689B094FF0000440F2E9
:10233000FF114FF0000201EA030102EA04020B461A
:10234000144660017862786A40EAD36078625B0183
:102350003B62D7E908345B1A64EB02044FEA841944
:1023600049EA93694FEA8318B8EB030869EB04095B
:102370004FEAC903FB61FB6943EA5873FB614FEA0B
:10238000C803BB61D7E9068918EB010849EB0209CC
:102390004FEA49237B617B6943EAD8537B614FEA6B
:1023A00048233B61D7E9048940464946FB6A4FF020
:1023B00000041A462346FDF71BFF03460C467B63C9
:1023C00043E02D4B5B689B094FF0000440F2FF1186
:1023D0004FF0000201EA030102EA04020B46144630
:1023E0006001F860F86840EAD360F8605B01BB60A8
:1023F000D7E902345B1A64EB0204A60146EA93664D
:102400009D01ED1A66EB0406F3007B607B6843EAEE
:1024100055737B60EB003B6097E860006D1846EBFE
:1024200002064FEA862B4BEA955B4FEA852A554612
:102430005E4628463146FB6A4FF000041A462346A2
:10244000FDF7D6FE03460C467B630B4B5B681B0C0B
:1024500003F0030301335B00BB627A6BBB6AB2FB20
:10246000F3F33B6302E0054B3B6300BF3B6B184655
:102470003C37BD46BDE8F08F003802400024F40030
:1024800000127A0080B400AF034B1B681846BD46AB
:102490005DF8047B704700BFC000002080B500AF2E
:1024A000FFF7F0FF0146054B9B685B0B03F007034A
:1024B000034AD35C21FA03F3184680BD003802407A
:1024C000B80F010880B483B000AF786039607B68D2
:1024D0000F221A60124B9B6803F003027B685A605C
:1024E0000F4B9B6803F0F0027B689A600C4B9B6873
:1024F00003F4E0527B68DA60094B9B68DB0803F465
:10250000E0527B681A61074B1B6803F00F023B68BF
:102510001A6000BF0C37BD465DF8047B704700BFF2
:1025200000380240003C024080B582B000AF7860C5
:102530007B68002B01D101231DE07B6893F83930C3
:10254000DBB2002B06D17B68002283F83820786844
:1025500000F015F87B68022283F839207B681A683E
:102560007B6804331946104600F05EF97B6801224F
:1025700083F83920002318460837BD4680BD80B453
:1025800083B000AF786000BF0C37BD465DF8047BB8
:10259000704780B483B000AF78607B681B687A684E
:1025A0001268D26842F00102DA607B681B687A68C0
:1025B0001268126842F001021A60002318460C37B4
:1025C000BD465DF8047B704780B582B000AF78608F
:1025D0007B681B681B6903F00203022B22D17B6816
:1025E0001B68DB6803F00203022B1BD17B681B68AE
:1025F0006FF002021A617B6801221A767B681B6801
:102600009B6903F00303002B03D0786800F0EEF819
:1026100005E0786800F0E0F8786800F0F1F87B6891
:1026200000221A767B681B681B6903F00403042BE5
:1026300022D17B681B68DB6803F00403042B1BD1E9
:102640007B681B686FF004021A617B6802221A76AD
:102650007B681B689B6903F44073002B03D0786888
:1026600000F0C4F805E0786800F0B6F8786800F08B
:10267000C7F87B6800221A767B681B681B6903F029
:102680000803082B22D17B681B68DB6803F0080372
:10269000082B1BD17B681B686FF008021A617B68EE
:1026A00004221A767B681B68DB6903F00303002BA6
:1026B00003D0786800F09AF805E0786800F08CF8AC
:1026C000786800F09DF87B6800221A767B681B68AA
:1026D0001B6903F01003102B22D17B681B68DB6899
:1026E00003F01003102B1BD17B681B686FF01002E6
:1026F0001A617B6808221A767B681B68DB6903F421
:102700004073002B03D0786800F070F805E078681B
:1027100000F062F8786800F073F87B6800221A769F
:102720007B681B681B6903F00103012B0ED17B68DA
:102730001B68DB6803F00103012B07D17B681B6872
:102740006FF001021A6178680DF0ECFB7B681B6882
:102750001B6903F08003802B0ED17B681B68DB684C
:1027600003F08003802B07D17B681B686FF0800229
:102770001A61786800F0E6F87B681B681B6903F053
:102780004003402B0ED17B681B68DB6803F04003DD
:10279000402B07D17B681B686FF040021A61786894
:1027A00000F038F87B681B681B6903F02003202BBE
:1027B0000ED17B681B68DB6803F02003202B07D158
:1027C0007B681B686FF020021A61786800F0B0F82F
:1027D00000BF0837BD4680BD80B483B000AF7860CD
:1027E00000BF0C37BD465DF8047B704780B483B0F2
:1027F00000AF786000BF0C37BD465DF8047B7047C2
:1028000080B483B000AF786000BF0C37BD465DF880
:10281000047B704780B483B000AF786000BF0C3792
:10282000BD465DF8047B704780B485B000AF78602A
:1028300039600023FB607B681B68FB607B68354A5E
:1028400093420FD07B68B3F1804F0BD07B68324A44
:10285000934207D07B68314A934203D07B68304A69
:10286000934201D1012300E00023002B08D0FB6834
:1028700023F07003FB603B685B68FA681343FB60FE
:102880007B68244A93421BD07B68B3F1804F17D0FA
:102890007B68214A934213D07B68204A93420FD031
:1028A0007B681F4A93420BD07B681E4A934207D035
:1028B0007B681D4A934203D07B681C4A934201D136
:1028C000012300E00023002B08D0FB6823F44073B1
:1028D000FB603B68DB68FA681343FB607B68FA685F
:1028E0001A603B689A687B68DA623B681A687B68A2
:1028F0009A627B68074A934203D13B681A697B68F6
:102900001A637B6801225A6100BF1437BD465DF827
:10291000047B7047000001400004004000080040B4
:10292000000C0040004001400044014000480140CC
:1029300080B483B000AF786000BF0C37BD465DF84F
:10294000047B704780B483B000AF786000BF0C3761
:10295000BD465DF8047B704784B080B582B000AF9F
:10296000786007F1140080E80E00BB6A012B20D1CB
:102970007B689B6B23F480327B689A637B68DB689F
:1029800023F4840323F040037A68D3607B68DB6818
:1029900023F440127B68DA607B6C012B05D17B68E5
:1029A000DB6843F480127B68DA60786801F0C4F970
:1029B0000CE07B68DB6843F040027B68DA60786893
:1029C00001F0BAF97B684FF480329A633B6A012BBD
:1029D0000BD17B689B6843F006027B689A607B683A
:1029E0009B6843F020027B689A60002318460837F2
:1029F000BD46BDE8804004B0704780B483B000AFEE
:102A000078607B689B6843F001027B689A600023D2
:102A100018460C37BD465DF8047B704780B483B020
:102A200000AF78607B689B6823F001027B689A6046
:102A3000002318460C37BD465DF8047B704780B50F
:102A400082B000AF78600B46FB707B68DB6823F0D8
:102A5000C0427B68DA60FB78012B06D17B68DB68BB
:102A600043F000527B68DA6008E0FB78002B05D168
:102A70007B68DB6843F080427B68DA603220FDF7D8
:102A800081FD002318460837BD4680BD84B080B55F
:102A900084B000AF786007F11C0080E80E000023CE
:102AA000FB607B6C002B06D17B689B6B43F40012B0
:102AB0007B689A6305E07B689B6B43F400227B682C
:102AC0009A637B6803F560631A46002313607B6892
:102AD00003F500631A467B6803F500631B68136007
:102AE0003B6B012B0CD17B6A002B04D10021786851
:102AF00000F046F908E00121786800F041F903E0B0
:102B00000321786800F03CF91021786800F0F0F8B3
:102B1000786800F013F97B6803F500631A46002318
:102B200013617B6803F500631A46002353617B68D9
:102B300003F500631A464FF0FF3393617B6803F59A
:102B400000631A460023D3610023FB6034E0FB6876
:102B50005A017B68134403F510631B6803F00043BC
:102B6000B3F1004F0AD1FB685A017B68134403F5A7
:102B700010631A464FF09043136008E0FB685A0157
:102B80007B68134403F510631A4600231360FB6847
:102B90005A017B68134403F510631A46002313613E
:102BA000FB685A017B68134403F510631A46FF2340
:102BB0009360FB680133FB60FA69FB689A42C6D8F0
:102BC0000023FB6034E0FB685A017B68134403F583
:102BD00030631B6803F00043B3F1004F0AD1FB6878
:102BE0005A017B68134403F530631A464FF0904353
:102BF000136008E0FB685A017B68134403F53063F7
:102C00001A4600231360FB685A017B68134403F5DE
:102C100030631A4600231361FB685A017B68134432
:102C200003F530631A46FF239360FB680133FB60B2
:102C3000FA69FB689A42C6D87B6803F500631A46B6
:102C40007B6803F500631B6923F480731361BB6A1F
:102C5000012B17D17B6803F500631A46224B1363DF
:102C60007B6803F500631A467B6803F500631B6B02
:102C700043F4803343F0030313637B6803F500637D
:102C80001B6BFB607B6800229A617B686FF080425F
:102C90005A61BB6A002B05D17B689B6943F0100227
:102CA0007B689A617B689A69104B13437A689361D9
:102CB0007B6B002B05D07B689B6943F008027B6827
:102CC0009A617B6C012B07D17B689B6943F0804341
:102CD00043F004037A689361002318461037BD4619
:102CE000BDE8804004B070470001800000383C809F
:102CF00080B485B000AF786039600023FB603B682A
:102D00009B0143F020027B681A61FB680133FB6082
:102D1000FB68094A934201D9032306E07B681B69DB
:102D200003F02003202BF0D0002318461437BD46B3
:102D30005DF8047B704700BF400D030080B485B090
:102D400000AF78600023FB607B6810221A61FB688B
:102D50000133FB60FB68094A934201D9032306E073
:102D60007B681B6903F01003102BF0D0002318467A
:102D70001437BD465DF8047B704700BF400D03006B
:102D800080B483B000AF78600B46FB707B6803F5BE
:102D9000006319467B6803F500631A68FB781343E8
:102DA0000B60002318460C37BD465DF8047B704766
:102DB00080B485B000AF78600023FB737B6803F5B7
:102DC00000639B6803F00603002B02D10023FB7312
:102DD0001CE07B6803F500639B6803F00603022B8D
:102DE00007D07B6803F500639B6803F00603062B9E
:102DF00002D10323FB7309E07B6803F500639B6842
:102E000003F00603042B01D10223FB73FB7B18465E
:102E10001437BD465DF8047B704780B483B000AFC3
:102E2000786039603B685B78012B3ED17B6803F5A5
:102E3000006319467B6803F50063DA693B681B7819
:102E40001846012383409BB21343CB613B681B7838
:102E50005A017B68134403F510631B6803F40043B5
:102E6000002B5CD13B681B785A017B68134403F547
:102E7000106318463B681B785A017B68134403F5BE
:102E800010631A683B689B68C3F30A033968C97802
:102E900089040B433968097889050B43134343F0D0
:102EA000805343F40043036039E07B6803F500631B
:102EB00019467B6803F50063DA693B681B7818469E
:102EC000012383401B041343CB613B681B785A01E9
:102ED0007B68134403F530631B6803F40043002B45
:102EE0001DD13B681B785A017B68134403F530639E
:102EF00018463B681B785A017B68134403F530631E
:102F00001A683B689B68C3F30A033968C978890467
:102F10000B43134343F0805343F400430360002307
:102F200018460C37BD465DF8047B704780B584B009
:102F300000AF786039600023FB603B685B78012B51
:102F400054D13B681B785A017B68134403F5106326
:102F500019463B681B785A017B68134403F51063DC
:102F60001B6823F400430B603B681B785A017B68A5
:102F7000134403F510631A464FF0006313603B6877
:102F80001B785A017B68134403F510631A464FF00F
:102F900080431360FB680133FB60FB68434A934244
:102FA00001D903237DE03B681B785A017B681344F9
:102FB00003F510639B6803F08043B3F1804FE9D0C1
:102FC00010217868FFF794FE7B6803F500631946CB
:102FD0007B6803F50063DA693B681B7818460123B8
:102FE00083409BB2DB431340CB6159E03B681B78C5
:102FF0005A017B68134403F5306319463B681B781C
:103000005A017B68134403F530631B6823F40043C3
:103010000B603B681B785A017B68134403F53063EF
:103020001A464FF0006313603B681B785A017B68B7
:10303000134403F530631A464FF080431360FB6876
:103040000133FB60FB68194A934201D9032328E04E
:103050003B681B785A017B68134403F530639B6817
:1030600003F01003102BEAD07B6803F500631A46C7
:103070007B6803F500635B6843F4806353607B689F
:1030800003F5006319467B6803F50063DA693B6862
:103090001B781846012383401B04DB431340CB619C
:1030A000002318461037BD4680BD00BF400D030009
:1030B00080B588B002AFF860B9601346FB71002399
:1030C000FB82BB685B78012B40F04681BB685B6983
:1030D000002B3BD1BB681B785A01FB68134403F5F6
:1030E00010631946BB681B785A01FB68134403F54B
:1030F00010631B6923F0FF5323F4C0130B61BB68FB
:103100001B785A01FB68134403F510631946BB682A
:103110001B785A01FB68134403F510631B6943F4E1
:1031200000230B61BB681B785A01FB68134403F54D
:1031300010631946BB681B785A01FB68134403F5FA
:1031400010631B69DB0CDB040B6186E0BB681B783A
:103150005A01FB68134403F510631946BB681B78DA
:103160005A01FB68134403F510631B69DB0CDB0495
:103170000B61BB681B785A01FB68134403F51063AD
:103180001946BB681B785A01FB68134403F51063AA
:103190001B6923F0FF5323F4C0130B61BB681B783A
:1031A0005A01FB68134403F510631846BB681B788B
:1031B0005A01FB68134403F510631A69BB68596927
:1031C000BB689B680B44591EBB689B68B1FBF3F35B
:1031D000D9048C4B0B4013430361BB681B785A0125
:1031E000FB68134403F510631946BB681B785A014A
:1031F000FB68134403F510631A69BB685B69C3F38A
:10320000120313430B61BB68DB78012B25D1BB682C
:103210001B785A01FB68134403F510631946BB6819
:103220001B785A01FB68134403F510631B6923F0F4
:10323000C0430B61BB681B785A01FB68134403F55C
:1032400010631946BB681B785A01FB68134403F5E9
:1032500010631B6943F000530B61FB79012B0BD109
:10326000BB681B785A01FB68134403F510631A46C8
:10327000BB681B69536116E0BB68DB78012B12D079
:10328000BB685B69002B0ED0FB6803F50063194631
:10329000FB6803F500635A6BBB681B781846012373
:1032A000834013434B63BB68DB78012B2ED1FB6853
:1032B00003F500639B6803F48073002B13D1BB6894
:1032C0001B785A01FB68134403F510631946BB6869
:1032D0001B785A01FB68134403F510631B6843F025
:1032E00000530B6012E0BB681B785A01FB68134463
:1032F00003F510631946BB681B785A01FB68134439
:1033000003F510631B6843F080530B60BB681B78A8
:103310005A01FB68134403F510631946BB681B7818
:103320005A01FB68134403F510631B6843F0044320
:103330000B60BB68DB78012B40F0F580BB68D96877
:10334000BB681A78BB685B6998B2FB790093034647
:10335000F86800F04EFAE6E0BB681B785A01FB689B
:10336000134403F530631946BB681B785A01FB68A8
:10337000134403F530631B69DB0CDB040B61BB6892
:103380001B785A01FB68134403F530631946BB6888
:103390001B785A01FB68134403F530631B6923F063
:1033A000FF5323F4C0130B61BB685B69002B2BD167
:1033B000BB681B785A01FB68134403F53063194658
:1033C000BB681B785A01FB68134403F530631A6924
:1033D000BB689B68C3F3120313430B61BB681B7884
:1033E0005A01FB68134403F530631946BB681B7828
:1033F0005A01FB68134403F530631B6943F400234F
:103400000B613CE00000F81FBB685A69BB689B6811
:1034100013445A1EBB689B68B2FBF3F3FB82BB6884
:103420001B785A01FB68134403F530631946BB68E7
:103430001B785A01FB68134403F530631A69FB8A51
:10344000DB0418463A4B034013430B61BB681B78FF
:103450005A01FB68134403F530631846BB681B78B8
:103460005A01FB68134403F530631A69BB689B6813
:10347000F98A01FB03F3C3F3120313430361FB79DE
:10348000012B0AD1BB681B785A01FB68134403F572
:1034900030631A46BB68DB685361BB68DB78012B7D
:1034A0002ED1FB6803F500639B6803F48073002B47
:1034B00013D1BB681B785A01FB68134403F53063D2
:1034C0001946BB681B785A01FB68134403F5306347
:1034D0001B6843F000530B6012E0BB681B785A0175
:1034E000FB68134403F530631946BB681B785A0127
:1034F000FB68134403F530631B6843F080530B6093
:10350000BB681B785A01FB68134403F53063194606
:10351000BB681B785A01FB68134403F530631B68D2
:1035200043F004430B60002318461837BD4680BDA6
:103530000000F81F80B485B000AFF860B960134692
:10354000FB71BB685B78012B40F0D280BB685B6984
:10355000002B3BD1BB681B785A01FB68134403F571
:1035600010631946BB681B785A01FB68134403F5C6
:1035700010631B6923F0FF5323F4C0130B61BB6876
:103580001B785A01FB68134403F510631946BB68A6
:103590001B785A01FB68134403F510631B6943F45D
:1035A00000230B61BB681B785A01FB68134403F5C9
:1035B00010631946BB681B785A01FB68134403F576
:1035C00010631B69DB0CDB040B615AE0BB681B78E2
:1035D0005A01FB68134403F510631946BB681B7856
:1035E0005A01FB68134403F510631B69DB0CDB0411
:1035F0000B61BB681B785A01FB68134403F5106329
:103600001946BB681B785A01FB68134403F5106325
:103610001B6923F0FF5323F4C0130B61BB685A6985
:10362000BB689B689A4203D9BB689A68BB685A61B9
:10363000BB681B785A01FB68134403F510631946F5
:10364000BB681B785A01FB68134403F510631B69C0
:1036500043F400230B61BB681B785A01FB681344D9
:1036600003F510631946BB681B785A01FB681344C5
:1036700003F510631A69BB685B69C3F31203134354
:103680000B61BB681B785A01FB68134403F5106398
:103690001946BB681B785A01FB68134403F5106395
:1036A0001B6843F004430B60FB79012B0BD1BB6813
:1036B0001B785A01FB68134403F510631A46BB6874
:1036C0001B6953618EE0BB685B69002B00F08A8048
:1036D000FB6803F500631946FB6803F500635A6B4A
:1036E000BB681B7818460123834013434B6379E082
:1036F000BB681B785A01FB68134403F53063194615
:10370000BB681B785A01FB68134403F530631B69DF
:10371000DB0CDB040B61BB681B785A01FB681344AC
:1037200003F530631946BB681B785A01FB681344E4
:1037300003F530631B6923F0FF5323F4C0130B61BF
:10374000BB685B69002B03D0BB689A68BB685A6191
:10375000BB681B785A01FB68134403F530631946B4
:10376000BB681B785A01FB68134403F530631B697F
:1037700043F400230B61BB681B785A01FB681344B8
:1037800003F530631946BB681B785A01FB68134484
:1037900003F530631A69BB689B68C3F312031343D4
:1037A0000B61FB79012B0AD1BB681B785A01FB68BE
:1037B000134403F530631A46BB68DB685361BB688A
:1037C0001B785A01FB68134403F530631946BB6844
:1037D0001B785A01FB68134403F530631B6843F000
:1037E00004430B60002318461437BD465DF8047B84
:1037F000704780B487B000AFF860B96011461A46D0
:103800000B46FB711346BB8000233B6100237B61A9
:1038100097F82030002B1AD1BB8803339B083B61FB
:1038200000237B610FE0FB791A03FB68134403F567
:1038300080531A46BB681B6813607B6901337B6148
:10384000BB680433BB607A693B699A42EBD30023BF
:1038500018461C37BD465DF8047B704780B487B0BE
:1038600000AFF860B9601346FB8000237B61FB88E2
:1038700003339B083B6100237B610BE0FB6803F58E
:1038800080531A68BB681A607B6901337B61BB682F
:103890000433BB607A693B699A42EFD3BB68184630
:1038A0001C37BD465DF8047B704780B483B000AF21
:1038B000786039603B685B78012B30D13B681B78BE
:1038C0005A017B68134403F510631B68002B12DB5D
:1038D0003B681B785A017B68134403F51063194653
:1038E0003B681B785A017B68134403F510631B681F
:1038F00023F080430B603B681B785A017B681344BC
:1039000003F5106319463B681B785A017B68134422
:1039100003F510631B6843F400130B602FE03B6852
:103920001B785A017B68134403F530631B68002B36
:1039300012DB3B681B785A017B68134403F5306344
:1039400019463B681B785A017B68134403F53063C2
:103950001B6823F080430B603B681B785A017B682F
:10396000134403F5306319463B681B785A017B68A2
:10397000134403F530631B6843F400130B6000230A
:1039800018460C37BD465DF8047B704780B483B0A1
:1039900000AF786039603B685B78012B2ED13B68C3
:1039A0001B785A017B68134403F5106319463B6882
:1039B0001B785A017B68134403F510631B6823F4DA
:1039C00000130B603B68DB78032B03D03B68DB788C
:1039D000022B41D13B681B785A017B68134403F5E5
:1039E000106319463B681B785A017B68134403F542
:1039F00010631B6843F080530B602DE03B681B781D
:103A00005A017B68134403F5306319463B681B7801
:103A10005A017B68134403F530631B6823F40013D9
:103A20000B603B68DB78032B03D03B68DB78022B11
:103A300012D13B681B785A017B68134403F530634D
:103A400019463B681B785A017B68134403F53063C1
:103A50001B6843F080530B60002318460C37BD46AB
:103A60005DF8047B704780B483B000AF78600B468C
:103A7000FB707B6803F500631A467B6803F50063FF
:103A80001B6823F4FE6313607B6803F5006319462B
:103A90007B6803F500631A68FB781B0103F4FE637F
:103AA00013430B60002318460C37BD465DF8047BBA
:103AB000704780B582B000AF78607B6803F5006323
:103AC0001A467B6803F500635B6823F002035360CA
:103AD0000320FCF757FD002318460837BD4680BD7C
:103AE00080B582B000AF78607B6803F500631A464A
:103AF0007B6803F500635B6843F0020353600320B7
:103B0000FCF740FD002318460837BD4680BD80B451
:103B100085B000AF78600023FB607B685B69FB6069
:103B20007B689B69FA681340FB60FB681846143792
:103B3000BD465DF8047B704780B485B000AF786007
:103B40007B6803F500639B69FB607B6803F500639A
:103B5000DB69FA681340FB60FB681B0C18461437DE
:103B6000BD465DF8047B704780B485B000AF7860D7
:103B70007B6803F500639B69FB607B6803F500636A
:103B8000DB69FA681340FB60FB689BB21846143788
:103B9000BD465DF8047B704780B485B000AF7860A7
:103BA0000B46FB70FB785A017B68134403F53063C6
:103BB0009B68FB607B6803F500635B69FA681340F0
:103BC000FB60FB6818461437BD465DF8047B704700
:103BD00080B487B000AF78600B46FB707B6803F55C
:103BE00000631B697B617B6803F500635B6B3B6172
:103BF000FB783A6922FA03F3DB01DBB27A691343FB
:103C00007B61FB785A017B68134403F510639A6863
:103C10007B691340FB60FB6818461C37BD465DF8A6
:103C2000047B704780B483B000AF78607B685B69C9
:103C300003F0010318460C37BD465DF8047B70475E
:103C400080B483B000AF78607B6803F510631A46D8
:103C50007B6803F510631B6823F4FF6323F00703FD
:103C600013607B6803F500639B6803F00603042B75
:103C70000AD17B6803F510631A467B6803F510636D
:103C80001B6843F0030313607B6803F500631A4667
:103C90007B6803F500635B6843F480735360002323
:103CA00018460C37BD465DF8047B704780B485B07C
:103CB00000AFF8600B467A60FB72FB6803F5306377
:103CC0001A4600231361FB6803F530631A46FB684C
:103CD00003F530631B6943F400231361FB6803F5AC
:103CE00030631A46FB6803F530631B6943F0180321
:103CF0001361FB6803F530631A46FB6803F5306314
:103D00001B6943F0C0431361FB7A012B0CD1FB68A4
:103D100003F530631A467B685361FB6803F5306333
:103D20001A464FF080231360002318461437BD460F
:103D30005DF8047B7047000080B485B000AF786008
:103D40000023FB60FB680133FB60FB68134A93426E
:103D500001D903231BE07B681B69002BF2DA0023E7
:103D6000FB607B681B6943F001027B681A61FB689A
:103D70000133FB60FB68094A934201D9032306E043
:103D80007B681B6903F00103012BF0D00023184668
:103D90001437BD465DF8047B704700BF400D03003B
:103DA00080B584B000AF78600B46FB700823032217
:103DB000812178680CF0C4FB4023022282217868BC
:103DC0000CF0BEFB40230222012178680CF0B8FB06
:103DD000134A7B6813604023124A012178680CF073
:103DE0002BFD0023FB60104B1B68002B12D00E4BE9
:103DF0001B6807F10C021146184604F0C9FAFB686B
:103E0000002B07D0094B4FF080521A60BFF34F8F41
:103E1000BFF36F8F002318461037BD4680BD00BF2B
:103E200030540020004600202854002004ED00E01B
:103E300080B582B000AF78600B46FB708121786856
:103E40000CF0BCFB822178680CF0B8FB012178688B
:103E50000CF0B4FB002318460837BD4680BD0000B7
:103E600080B582B000AF786039603B681B7803F0A2
:103E70006003202B00D018E03B68DB88002B14D0B7
:103E80003B681B785BB2002B08DA0B4B5B689BB27C
:103E90001A460949786801F083FC06E03B68DB8834
:103EA0001A460549786801F0A9FC00BF00231846AE
:103EB0000837BD4680BD00BF984D002080B582B058
:103EC00000AF78600B46FB70FB7803F00F03FB70CC
:103ED000FB78022B26D1164B00221A60154B1A686C
:103EE000154B1B681344134A1360144B1A68124B8A
:103EF0001B68D31A114A1360114B1B680E4A1268D3
:103F000013440F4A13600C4B00221A60786800F0CB
:103F10005DF90A4B1B68002B04DC0A4B1B6801335C
:103F2000084A1360002318460837BD4680BD00BF0D
:103F3000040000200003002004030020FC020020F5
:103F4000F8020020E402002080B584B000AF786061
:103F50000B46FB70FB78194678680CF0A7FCF860FC
:103F6000FB78012B46D1264B1B681A46FB6813448D
:103F700040F21662934208D9224BDB680133214A92
:103F8000D3601F4B00221A602EE01D4B1B681A469F
:103F9000FB68134440F2166293421DD8184B1B680D
:103FA000194A1344FA68194918460CF0A0FD144B3D
:103FB0001B681A46FB6813441A46114B1A60FB68CB
:103FC000402B11D00E4B1B6819460F4800F076F9B4
:103FD0000B4B00221A6007E0094B00221A60094BC4
:103FE000DB680133074AD3604023084A012178681F
:103FF0000CF022FC002318461037BD4680BD00BFE0
:1040000014030020E4020020804700200046002026
:1040100080B586B000AF78603F4B1B68023B062B33
:1040200073D801A252F823F0454000080B41000864
:10403000A7400008AF400008B74000080B41000847
:10404000E7400008344B7B617B69344A1A607B6926
:1040500034225A607B6901221A617B6900225A610D
:104060007B690022DA607B6901229A617B69002208
:10407000DA617B6901221A627B6940F216625A6238
:104080007B6900229A627B690022DA627B690022E6
:104090001A63234B01221A700823224A812178686F
:1040A0000CF090FB32E0786800F046F92EE078687A
:1040B00000F04EFB2AE0184B3B61194B00221A70AE
:1040C0003B69194A1A603B6910225A603B69002219
:1040D0009A603B690122DA600823124A81217868DC
:1040E0000CF070FB12E00C4BFB60FB680F4A1A608F
:1040F000FB6810225A60FB680022DA600823094A34
:10410000812178680CF05EFB00E000BF00231846B8
:104110001837BD4680BD00BF984D002002000080CA
:104120002C540020C80D0108060000800800008003
:1041300080B483B000AF78607B684B221A80064B56
:104140004B229A70044B0022DA70034B18460C374E
:10415000BD465DF8047B70474000002080B582B00A
:1041600000AF7860786800F031F8034618460837E9
:10417000BD4680BD80B582B000AF78600B46FB7055
:10418000786800F023F8034618460837BD4680BD1E
:1041900080B582B000AF78600B46FB70786800F0A5
:1041A00015F8034618460837BD4680BD80B483B075
:1041B00000AF78607B680A221A80034B18460C37E0
:1041C000BD465DF8047B70478C00002080B584B04C
:1041D00000AF7860324B1B68002B0BD1314B1B6852
:1041E000002B07D0304B1B68002B03DD2F4B1B78B7
:1041F000022B01D000234FE02D4B1B68002B37D042
:104200002C4BBB602C220021B8680CF095FCBB68DD
:1042100001221A60244B1B6803F12C02BB685A6010
:10422000BB6824229A60204B1B681A46BB68DA6080
:104230001B4B14221A601A4B1A681B4B1B689A42BC
:1042400003DD194B1B68164A13601B48154B196890
:10425000134B1B681A460CF04AFC114B1B689BB2AF
:104260002C339BB2134A822178680CF0ABFA12E02F
:104270000D4B1B68FB60FB68402B01DD4023FB609E
:10428000084B1A68FB689BB2822178680CF09AFA96
:10429000034AFB681360002318461037BD4680BDF3
:1042A00004030020F8020020FC0200202C5400200F
:1042B00004000020180300204403002080B584B0CF
:1042C00000AF786039607B68FB603B682B2B29D995
:1042D000FB681B68012B27D1FB685A683B689A4230
:1042E00022D1FB689A68FB68DB68134403F108027B
:1042F0003B689A4205D00E4BDB6801330C4AD36011
:1043000013E00B4B5B680133094A5360FB689B6801
:104310000833084A1A44FB68DB681946104600F067
:10432000E5FA02E000BF00E000BF1037BD4680BDE7
:10433000E40200208047002090B583B000AF786091
:10434000B24BDB68B24A934200F08D80B04A934290
:104350003FD8B04A934200F0E580AE4A93421BD862
:10436000AD4A934200F09480AB4A934207D8AB4ADF
:10437000934271D0AA4A934200F09C803CE1A94A42
:10438000934200F0C180A84A934200F09980A74A66
:10439000934200F083802FE1A54A934200F0AC8065
:1043A000A34A934208D8A34A934200F08F80A14ABF
:1043B000934200F29280BCE09F4A934200F0DE807C
:1043C0009E4A934200F0BC809D4A934200F0A38035
:1043D00012E1B3F1013F54D0B3F1013F1FD8994A24
:1043E000934200F0EB80974A93420BD8964A93424F
:1043F00000F0AC80954A934200F0D880944A9342F2
:1044000052D0F9E0934A934200F0E080914A9342FF
:10441000C0F0E480904A934200F0E880ECE08F4ADC
:10442000934200F0A5808D4A934208D88C4A93426B
:1044300000F098808A4A934200F28E801AE0894AFE
:10444000934200F0A780884A934200F0A980874AEF
:10445000934200F09980CFE05823854A0021786884
:1044600000F018F9CFE04FF480520021786800F096
:1044700043F9C8E006237F4A0021786800F00AF972
:10448000C1E006237C4A0021786800F003F9BAE015
:1044900000220021786800F02FF9B4E0002200210A
:1044A000786800F029F9AEE000220021786800F079
:1044B00023F9A8E000220021786800F01DF9A2E0AD
:1044C0006E4A0021786800F017F99CE06FF07F4297
:1044D0000021786800F010F995E0694B1C68684B82
:1044E0001B681846FBF77CFE034601332246002179
:1044F000786800F0CFF886E0624B1B681A4600210E
:10450000786800F0F9F87EE040F2DC52002178682B
:1045100000F0F2F877E040F2EA520021786800F00B
:10452000EBF870E040F2EA520021786800F0E4F81D
:1045300069E040F2EA520021786800F0DDF862E0BC
:1045400000220021786800F0D7F85CE0002200210A
:10455000786800F0D1F856E001220021786800F078
:10456000CBF850E000224849786800F0C5F84AE0EE
:1045700000224549786800F0BFF844E0002200219D
:10458000786800F0B9F83EE000220021786800F079
:10459000B3F838E000220021786800F0ADF832E08E
:1045A00000220021786800F0A7F82CE0374B1B6848
:1045B0001A460021786800F09FF824E0334B5B68CE
:1045C0001A460021786800F097F81CE02F4BDB6852
:1045D0001A460021786800F08FF814E02B4B9B6896
:1045E0001A460021786800F087F80CE000220021CC
:1045F000786800F081F806E00023002224497868FA
:1046000000F048F800BF0C37BD4690BD984D002023
:10461000160101000A01010003010100010101006E
:10462000020101000601010007010100040101006F
:104630000E0101000C010100130101001401010031
:1046400011010100020102001B0201000101020030
:10465000020201000401020005010200050101013E
:104660000301010102010201030102010101020132
:10467000C00E0108180F0108200F0108C0D4010066
:1046800098000020F4020020BB0000C0E4020020DB
:10469000010000C080B586B000AFF860B9607A60F4
:1046A0003B60124B7B617B69114A1A603B6803F1E6
:1046B00018027B695A603A687B691A617B6910222B
:1046C0005A61BA687B69DA607B6918333A6879683D
:1046D00018460CF00CFA0823064A8121F8680CF001
:1046E00071F800BF1837BD4680BD00BF984D00204F
:1046F00004000080C80D010880B586B000AFF860E6
:10470000B9607A600F4B7B617B690F4A1A607B69E5
:104710001C225A607B6904221A617B6910225A614B
:10472000BA687B69DA607B6918337A681A60082393
:10473000064A8121F8680CF045F800BF1837BD46DD
:1047400080BD00BF984D002004000080C80D010806
:1047500080B588B000AF78602C4BFB612B4BBB6100
:10476000BB69DB687B61FB69294A1A60FB6910221F
:104770005A60FB690022DA607B69264A934236D090
:10478000244A934206D8244A934217D0234A93429C
:104790002FD028E0224A934203D0224A93422AD0C3
:1047A00021E0BB693B613B6908333B61BB695B69E5
:1047B0003A6913443B613B69FB601DE0BB6903F14F
:1047C0000802BB695B6913441B68174A1360164BE8
:1047D0001B68002B03D0154B02221A700CE0134B00
:1047E00001221A7008E0FB69114ADA6004E000BF98
:1047F00002E000BF00E000BF08230E4A8121786874
:104800000BF0E0FF00BF2037BD4680BD984D002073
:1048100005000080120101000E0101000F010100DE
:104820001B02010003010101F40200202C540020AE
:10483000010000C0C80D010880B582B002AF074B6F
:1048400001930623009300234FF480720449054826
:1048500002F0D0FC01231846BD4680BD08030020AD
:10486000DC0D01086549000880B582B000AF7860B2
:1048700039607B68DB69002B09D07B68DB6940F21B
:10488000EA52934203D8144B1B68002B01DD00232E
:104890001EE072B6114B01221A607B6899697B6831
:1048A000DB691A460E480CF022F90E4B00221A6002
:1048B0000D4B0B4A1A607B68DB691A46064B1A607F
:1048C00062B63B68002B02D078680BF0A7F9012391
:1048D00018460837BD4680BDFC02002004000020B9
:1048E0004046002000030020F802002080B584B07C
:1048F00000AF786039603B681A46796814480CF05C
:10490000F6F8144A3B6813600023FB60124B1B68E7
:1049100043F00103104A1360104B1B68002B12D0A8
:104920000E4B1B6807F10C021146184603F030FDD0
:10493000FB68002B07D00A4B4FF080521A60BFF380
:104940004F8FBFF36F8F00BF1037BD4680BD00BFD4
:10495000104E0020100300200C030020080300204C
:1049600004ED00E080B586B000AF78604FF0FF3115
:10497000002003F0C5FC1A4B1B687B617B69002B90
:10498000F4D0002178690BF0D1F838613B69002B35
:10499000ECD03B699B697A69124918460CF0A7F87C
:1049A0003B697A69DA613B699B69184605F090FDBD
:1049B0000346012B10D101233B723B69FB6007F1D9
:1049C00008030021184605F039FD0346002BCDD120
:1049D00038690BF023F9C9E738690BF01FF9C5E70F
:1049E00010030020104E002080B584B000AFF860A6
:1049F000B9601346FB71FB68002B01D102231AE05A
:104A0000FB68D3F81432002B03D0FB680022C3F8F4
:104A10001422BB68002B03D0FB68BA68C3F81022CD
:104A2000FB68012283F8FC21FB68FA791A70F868A8
:104A30000BF0FAFC002318461037BD4680BD80B449
:104A400085B000AF786039600023FB733B68002BB2
:104A500006D07B683A68C3F814220023FB7301E098
:104A60000223FB73FB7B18461437BD465DF8047BBD
:104A7000704780B582B000AF786078680BF02EFD8B
:104A8000002318460837BD4680BD80B483B000AF10
:104A90007860002318460C37BD465DF8047B7047EC
:104AA00080B584B000AF78600B46FB700223FB73C7
:104AB0007B68D3F81432002B0CD07B68D3F8143207
:104AC0001B68FA781146786898470346002B01D195
:104AD0000023FB73FB7B18461037BD4680BD80B5B5
:104AE00082B000AF78600B46FB707B68D3F814325D
:104AF0005B68FA78114678689847002318460837AB
:104B0000BD4680BD80B582B000AF786039607B68FB
:104B100003F502733968184600F099FD7B6801229D
:104B2000C3F8F4217B68B3F80E321A467B68C3F8E9
:104B3000F8217B6893F8083203F01F03012B0BD098
:104B4000022B11D0002B17D17B6803F50273194695
:104B5000786800F0C7F91AE07B6803F5027319461C
:104B6000786800F00FFA12E07B6803F502731946CB
:104B7000786800F03AFA0AE07B6893F8083223F08C
:104B80007F03DBB2194678680BF04EFD00BF0023AF
:104B900018460837BD4680BD80B586B000AFF860C6
:104BA0000B467A60FB72FB7A002B38D1FB6803F569
:104BB00082737B61FB68D3F8F431032B42D17B69AC
:104BC0009A687B69DB689A4214D97B699A687B6929
:104BD000DB68D21A7B699A607B69DA687B699B68BB
:104BE000934228BF13469BB21A467968F86800F0D2
:104BF00023FE27E0FB68D3F814321B69002B0AD090
:104C0000FB6893F8FC31032B05D1FB68D3F8143211
:104C10001B69F8689847F86800F020FE12E0FB680E
:104C2000D3F814329B69002B0CD0FB6893F8FC314D
:104C3000032B07D1FB68D3F814329B69FA7A11462B
:104C4000F8689847002318461837BD4680BD80B5E0
:104C500086B000AFF8600B467A60FB72FB7A002BDF
:104C60006CD1FB6814337B61FB68D3F8F431022B01
:104C700057D17B699A687B69DB689A4215D97B6951
:104C80009A687B69DB68D21A7B699A607B699B684A
:104C90009BB21A467968F86800F09EFD0023002256
:104CA0000021F8680BF0C8FD3BE07B695B687A691E
:104CB000D268B3FBF2F102FB01F29B1A002B1CD16C
:104CC0007B695A687B69DB689A4216D37B695A68AC
:104CD000FB68D3F8F8319A420FD200220021F8681D
:104CE00000F07AFDFB680022C3F8F82100230022BF
:104CF0000021F8680BF0A0FD13E0FB68D3F8143234
:104D0000DB68002B0AD0FB6893F8FC31032B05D13C
:104D1000FB68D3F81432DB68F8689847F86800F04D
:104D2000B0FDFB6893F80032012B1AD1F868FFF749
:104D3000ACFEFB68002283F8002212E0FB68D3F887
:104D400014325B69002B0CD0FB6893F8FC31032B09
:104D500007D1FB68D3F814325B69FA7A1146F86818
:104D60009847002318461837BD4680BD80B582B0ED
:104D700000AF786040230022002178680BF0E0FB50
:104D80007B684022C3F810214023002280217868EC
:104D90000BF0D6FB7B6840221A627B68012283F805
:104DA000FC217B68D3F81832002B09D07B68D3F83C
:104DB00014325B687A685268D2B2114678689847B4
:104DC000002318460837BD4680BD80B483B000AFCD
:104DD00078600B46FB707B68FA781A7400231846DB
:104DE0000C37BD465DF8047B704780B483B000AFDC
:104DF00078607B6893F8FC217B6883F8FD217B68F1
:104E0000042283F8FC21002318460C37BD465DF8C8
:104E1000047B704780B483B000AF78607B6893F800
:104E2000FD217B6883F8FC21002318460C37BD4622
:104E30005DF8047B704780B582B000AF78607B6816
:104E400093F8FC31032B0BD17B68D3F81432DB6968
:104E5000002B05D07B68D3F81432DB69786898475B
:104E6000002318460837BD4680BD80B483B000AF2C
:104E700078600B46FB70002318460C37BD465DF882
:104E8000047B704780B483B000AF78600B46FB7042
:104E9000002318460C37BD465DF8047B704780B48C
:104EA00083B000AF7860002318460C37BD465DF82C
:104EB000047B704780B582B000AF78607B680122C8
:104EC00083F8FC217B68D3F814325B687A685268F7
:104ED000D2B2114678689847002318460837BD4675
:104EE00080BD000080B584B000AF786039600023D9
:104EF000FB733B685B78092B39D801A252F823F089
:104F0000514F0008654F00086F4F00085B4F0008C5
:104F10006F4F0008334F0008294F00086F4F0008FB
:104F2000474F00083D4F00083968786800F036F9AF
:104F300022E03968786800F025FA1DE03968786861
:104F400000F05EFA18E03968786800F0E1FA13E0E2
:104F50003968786800F00EFB0EE03968786800F078
:104F600033FB09E03968786800F049FB04E03968F0
:104F7000786800F0A9FB00BFFB7B18461037BD46E0
:104F800080BD00BF80B584B000AF78603960002379
:104F9000FB737B6893F8FC31032B1BD13B689B8828
:104FA000DBB2012B11D87B68D3F814329B683968C7
:104FB000786898473B68DB88002B10D1FB7B002B7F
:104FC0000DD1786800F04AFC09E03968786800F093
:104FD0007BFB04E03968786800F076FB00E000BFF6
:104FE000002318461037BD4680BD80B584B000AFA1
:104FF000786039600023FB733B689B88BB733B6818
:105000001B7803F06003202B08D17B68D3F814329F
:105010009B683968786898470023BAE03B685B78FA
:10502000012B39D0032B02D0002B6BD0B0E07B6872
:1050300093F8FC31022B02D0032B0CD025E0BB7B74
:10504000002B27D0BB7B802B24D0BB7B19467868F4
:105050000BF0EAFA1EE03B685B88002B0AD1BB7BB1
:10506000002B07D0BB7B802B04D0BB7B1946786814
:105070000BF0DAFA7B68D3F814329B6839687868E9
:105080009847786800F0EAFB05E03968786800F036
:105090001BFB00E000BF7BE07B6893F8FC31022B38
:1050A00002D0032B0CD024E0BB7B002B26D0BB7B93
:1050B000802B23D0BB7B194678680BF0B5FA1DE036
:1050C0003B685B88002B1BD1BB7B03F07F03002B6D
:1050D0000BD0BB7B194678680BF0DCFA7B68D3F801
:1050E00014329B68396878689847786800F0B6FB96
:1050F00006E03968786800F0E7FA02E000BF47E0B0
:1051000000BF45E07B6893F8FC31022B02D0032BF3
:105110000BD036E0BB7B03F07F03002B36D0BB7B8C
:10512000194678680BF080FA30E097F90E30002BC2
:1051300008DABB7B03F07F0301331B017A68134459
:10514000043307E0BB7B03F07F0310331B017A6855
:1051500013440433BB60BB7B194678680BF0D0FA6C
:105160000346002B03D0BB6801221A6002E0BB6833
:1051700000221A60BB6802221946786800F010FB12
:1051800005E03968786800F09FFA00E000BF00BFD2
:10519000FB7B18461037BD4680BD000080B584B04B
:1051A00000AF786039603B685B881B0A9BB2013BAB
:1051B000062B00F2C98001A252F823F0D951000851
:1051C000F1510008315200084953000849530008C2
:1051D000F55200081B5300087B68D3F810321B6897
:1051E0007A68127C07F10A0110469847F860B0E02F
:1051F0007B681B7C002B0DD17B68D3F814329B6A33
:1052000007F10A0210469847F860FB680133022252
:105210001A709EE07B68D3F81432DB6A07F10A0249
:1052200010469847F860FB68013302221A7090E03C
:105230003B685B88DBB2052B56D801A252F823F0FD
:10524000595200087152000889520008A152000802
:10525000B9520008D15200087B68D3F810325B685D
:105260007A68127C07F10A0110469847F86040E01E
:105270007B68D3F810329B687A68127C07F10A01C8
:1052800010469847F86034E07B68D3F81032DB684A
:105290007A68127C07F10A0110469847F86028E006
:1052A0007B68D3F810321B697A68127C07F10A0117
:1052B00010469847F8601CE07B68D3F810325B69B1
:1052C0007A68127C07F10A0110469847F86010E0EE
:1052D0007B68D3F810329B697A68127C07F10A0167
:1052E00010469847F86004E03968786800F0ECF9F7
:1052F00044E02EE07B681B7C002B09D17B68D3F84F
:1053000014325B6B07F10A0210469847F86020E000
:105310003968786800F0D8F930E07B681B7C002B96
:105320000DD17B68D3F814321B6B07F10A021046CB
:105330009847F860FB68013307221A7009E0396862
:10534000786800F0C1F919E03968786800F0BCF9B4
:1053500014E07B89002B11D03B68DB88002B0DD03B
:105360003B68DA887B89934228BF13469BB27B81D6
:105370007B891A46F968786800F012FA1037BD4642
:1053800080BD00BF80B584B000AF786039603B68F5
:105390009B88002B2CD13B68DB88002B28D13B68F5
:1053A0005B88DBB203F07F03FB737B6893F8FC310F
:1053B000032B04D13968786800F086F91CE07B681B
:1053C000FA7B83F8FE21FB7B194678680BF0C4F961
:1053D000786800F043FAFB7B002B04D07B68022244
:1053E00083F8FC2108E07B68012283F8FC2103E0BC
:1053F0003968786800F068F900BF1037BD4680BD95
:1054000080B582B000AF786039603B685B88DAB203
:105410003E4B1A703D4B1B78012B04D939687868D4
:1054200000F052F96FE07B6893F8FC31022B02D058
:10543000032B23D062E0354B1B78002B1AD0334B63
:105440001B781A467B685A607B68032283F8FC212C
:105450002E4B1B7819467868FFF722FB0346022B78
:1054600004D13968786800F02FF94CE0786800F0D2
:10547000F5F948E0786800F0F1F944E0234B1B7837
:10548000002B12D17B68022283F8FC211F4B1B7872
:105490001A467B685A601D4B1B7819467868FFF7DF
:1054A0001EFB786800F0DAF92DE0184B1B781A46DD
:1054B0007B685B689A421DD07B685B68DBB21946EB
:1054C0007868FFF70CFB114B1B781A467B685A6013
:1054D0000E4B1B7819467868FFF7E2FA0346022B59
:1054E00004D13968786800F0EFF80CE0786800F0D3
:1054F000B5F908E0786800F0B1F904E03968786837
:1055000000F0E2F800BF0837BD4680BD5803002018
:1055100080B582B000AF786039603B68DB88012BD2
:1055200004D03968786800F0CFF81FE07B6893F802
:10553000FC31022B02D0032B0BD012E07B6800223F
:105540009A607B68083301221946786800F028F9D0
:105550000CE07B68043301221946786800F020F9DA
:1055600004E03968786800F0AFF800BF00BF083782
:10557000BD4680BD80B582B000AF786039607B6881
:1055800093F8FC31023B012B15D87B680122DA60CD
:105590007B68D3F80432002B05D07B68DB6843F0CE
:1055A00002027B68DA607B680C3302221946786855
:1055B00000F0F6F804E03968786800F085F800BF7C
:1055C00000BF0837BD4680BD80B582B000AF7860AF
:1055D00039603B685B88012B0DD17B680122C3F8E1
:1055E00004227B68D3F814329B683968786898473E
:1055F000786800F033F900BF0837BD4680BD80B53C
:1056000082B000AF786039607B6893F8FC31023B70
:10561000012B12D83B685B88012B13D17B680022D9
:10562000C3F804227B68D3F814329B683968786821
:105630009847786800F012F904E03968786800F05B
:1056400043F800E000BF00BF0837BD4680BD80B40E
:1056500083B000AF786039603B681A787B681A7055
:105660003B685A787B685A703B6802331B789AB261
:105670003B6803331B789BB21B029BB213449AB264
:105680007B685A803B6804331B789AB23B680533C9
:105690001B789BB21B029BB213449AB27B689A8020
:1056A0003B6806331B789AB23B6807331B789BB282
:1056B0001B029BB213449AB27B68DA8000BF0C379E
:1056C000BD465DF8047B704780B582B000AF78605E
:1056D0003960802178680AF0A7FF002178680AF015
:1056E000A3FF00BF0837BD4680BD80B586B000AFC0
:1056F000F860B9607A600023FB75FB68002B33D03B
:10570000F86800F035F8034601339BB25B009AB2AB
:105710007B681A80FB7D5A1CFA751A46BB681344D5
:105720007A681288D2B21A70FB7D5A1CFA751A4632
:10573000BB68134403221A7012E0FB7D5A1CFA75F1
:105740001A46BB681A44FB68591CF9601B78137031
:10575000FB7D5A1CFA751A46BB68134400221A7066
:10576000FB681B78002BE8D100BF1837BD4680BD11
:1057700080B485B000AF78600023FB7305E0FB7B4D
:105780000133FB737B6801337B607B681B78002BE4
:10579000F5D1FB7B18461437BD465DF8047B704796
:1057A00080B584B000AFF860B9601346FB80FB6839
:1057B0000222C3F8F421FA88FB689A61FA88FB6830
:1057C000DA61FB88BA680021F8680AF0FBFF002361
:1057D00018461037BD4680BD80B584B000AFF86074
:1057E000B9601346FB80FB88BA680021F8680AF0AC
:1057F000E9FF002318461037BD4680BD80B584B050
:1058000000AFF860B9601346FB80FB680322C3F861
:10581000F421FA88FB68C3F80821FA88FB68C3F80A
:105820000C21FB88BA680021F8680BF005F800230A
:1058300018461037BD4680BD80B584B000AFF86013
:10584000B9601346FB80FB88BA680021F8680AF04B
:10585000F3FF002318461037BD4680BD80B582B0E7
:1058600000AF78607B680422C3F8F4210023002293
:10587000002178680AF0A6FF002318460837BD46C5
:1058800080BD80B582B000AF78607B680522C3F828
:10589000F42100230022002178680AF0CDFF0023C4
:1058A00018460837BD4680BD80B485B000AF0346BA
:1058B000FB800023FB60B7F90630842B05D0B7F9D5
:1058C0000620FB6813440333FB60FB68184614375B
:1058D000BD465DF8047B704780B500AF01F076FEF1
:1058E0000023184680BDF0B587B002AF78603960FC
:1058F0007B685C687B681D687B681B699EB27B68FF
:10590000B3F908301846FFF7CFFF024607F10C0342
:10591000019300923B6832462946204601F06AFC1A
:105920000346012B01D0002300E0FB681846143722
:10593000BD46F0BD80B584B000AF78607B68FB6089
:10594000FB68002B01D0FB6800E00123184601F042
:1059500009FE002318461037BD4680BD80B500AF54
:1059600002F0DCFA0346012B01D000F05DFC00BF21
:1059700080BD80B582B000AF182000F0E1FC7860F7
:105980007B68002B07D07B6800221A607B68043399
:10599000184600F0E0F97B6818460837BD4680BD20
:1059A00080B590B000AFF860B9607A603B60FB688A
:1059B0007B630023BB6300233B63FB68002B09D19F
:1059C0004FF0500383F31188BFF36F8FBFF34F8FF6
:1059D0003B62FEE7BB6803F07F43002B09D04FF02A
:1059E000500383F31188BFF36F8FBFF34F8FFB61B9
:1059F000FEE7BB68002B09D14FF0500383F31188F9
:105A0000BFF36F8FBFF34F8FBB61FEE702F086FAE3
:105A10000346002B02D1BB6C002B01D1012300E017
:105A20000023002B09D14FF0500383F31188BFF3FB
:105A30006F8FBFF34F8F7B61FEE701F00DFE7B6B35
:105A40001B68FB623A68B968F86A00F062F9B862EC
:105A5000BB6A002B0ED0FB6AFB630023BB647B6830
:105A6000002B28D07B6B1A68BB68DB431A407B6B2A
:105A70001A6020E0BB6C002B04D1FB6AFB6301239E
:105A80003B6318E07B68002B03D0BB6B43F0807353
:105A9000BB633B68002B03D0BB6B43F08063BB63ED
:105AA0007B6B181DBA68BB6B1343BA6C194601F0C7
:105AB000C7FF0023FB6301F0DDFD7862BB6C002BA8
:105AC00031D07B6A002B07D1194B4FF080521A60FE
:105AD000BFF34F8FBFF36F8F02F0E6FBF863FB6BF2
