:020000040800F2
:100000000000022099910008319100083391000806
:100010003591000837910008399100080000000070
:10002000000000000000000000000000213D00086A
:100030003B91000800000000B13D00083D91000820
:10004000E9910008E9910008E9910008E9910008A8
:10005000E9910008E9910008E9910008E991000898
:10006000E9910008E9910008E9910008E991000888
:10007000E9910008E9910008E9910008E991000878
:10008000E9910008E9910008E991000800000000EA
:10009000000000000000000000000000E9910008DE
:1000A000E991000841910008E9910008E9910008F0
:1000B000E9910008E9910008E9910008E991000838
:1000C000E9910008E9910008E9910008E991000828
:1000D000E9910008E9910008E9910008000000009A
:1000E000E9910008E9910008E9910008000000008A
:1000F000000000000000000000000000E99100087E
:1001000000000000E9910008E9910008E991000869
:1001100000000000000000000000000000000000DF
:10012000E9910008E9910008E9910008E9910008C7
:10013000E99100080000000000000000000000003D
:10014000000000000000000000000000692300081B
:10015000E9910008E9910008E9910008E991000897
:10016000E9910008E991000800000000000000008B
:10017000000000000000000000000000000000007F
:1001800000000000E99100080000000000000000ED
:08019000E9910008E991000863
:1001A00010B5054C237833B9044B13B10448AFF3B1
:1001B00000800123237010BDA80300200000000070
:1001C000C095000808B5034B1BB103490348AFF3C2
:1001D000008008BD00000000AC030020C0950008AE
:1001E000034613F8012B002AFBD1181A0138704777
:1001F00053B94AB9002908BF00281CBF4FF0FF318E
:100200004FF0FF3000F07AB9ADF1080C6DE904CE83
:1002100000F006F8DDF804E0DDE9022304B07047E1
:100220002DE9F0478C460D460446089E002B51D11F
:100230008A4217466DD9B2FA82FEBEF1000F0BD08A
:10024000CEF1200C01FA0EF520FA0CFC02FA0EF7A2
:100250004CEA050C00FA0EF44FEA174A250CBCFBD9
:10026000FAF81FFA87F90AFB18CC45EA0C4508FB97
:1002700009F3AB420AD9ED1908F1FF3280F023816E
:10028000AB4240F22081A8F102083D44ED1AA4B22D
:10029000B5FBFAF00AFB105544EA054400FB09F9E6
:1002A000A14509D9E41900F1FF3380F00A81A14585
:1002B00040F2078102383C44A4EB090440EA0840BC
:1002C0000021002E61D024FA0EF400233460736004
:1002D000BDE8F0878B4207D9002E54D0002186E874
:1002E00021000846BDE8F087B3FA83F1002940F009
:1002F0008E80AB4202D3824200F2FA80841A65EB10
:1003000003050120AC46002E3FD086E81010BDE862
:10031000F08712B90127B7FBF2F7B7FA87FEBEF1F3
:10032000000F34D1EB1B3A0C1FFA87FC0121B3FB01
:10033000F2F8250C02FB183345EA03450CFB08F3E1
:10034000AB4207D9ED1908F1FF3002D2AB4200F2FF
:10035000D1808046ED1AA3B2B5FBF2F002FB105536
:1003600043EA05440CFB00FCA44507D9E41900F15D
:10037000FF3302D2A44500F2B8801846A4EB0C0467
:1003800040EA08409DE731463046BDE8F087CEF1AF
:10039000200405FA0EF307FA0EF720FA04F83A0CD7
:1003A00025FA04F448EA0308B4FBF2F14FEA1845D1
:1003B00002FB11441FFA87FC45EA044501FB0CF3DC
:1003C000AB4200FA0EF409D9ED1901F1FF3080F0CB
:1003D0008A80AB4240F2878002393D44EB1A1FFA13
:1003E00088F5B3FBF2F002FB103345EA034500FB4E
:1003F0000CF3AB4207D9ED1900F1FF386FD2AB42D5
:100400006DD902383D44EB1A40EA01418FE7C1F152
:10041000200722FA07F88B4005FA01F448EA0303A3
:1004200020FA07FE4FEA134CFD404EEA040EB5FBDE
:10043000FCF94FEA1E440CFB19551FFA83F844EAF5
:10044000054509FB08F4AC4202FA01F200FA01FA90
:1004500008D9ED1809F1FF3043D2AC4241D9A9F1D6
:1004600002091D442D1B1FFA8EFEB5FBFCF00CFB90
:1004700010554EEA054400FB08F8A04507D9E418DA
:1004800000F1FF3529D2A04527D902381C4440EAA3
:100490000940A4EB0804A0FB02894C45C6464D4622
:1004A00015D312D056B1BAEB0E0364EB050404FA6F
:1004B00007F7CB401F43CC40376074600021BDE894
:1004C000F0871846F8E69046E0E6C245EAD2B8EB77
:1004D000020E69EB03050138E4E72846D7E74046FA
:1004E00091E78146BEE7014678E702383C4445E79C
:1004F000084608E7A8F102083D442BE7704700BF13
:1005000008B50B4B1A6842F400721A601A6842F47C
:1005100080621A601A6842F480721A60032000F048
:100520002FF8002008F0C8FD08F07EFD002008BD6F
:10053000003C0240034A044B11681B780B441360D3
:10054000704700BFE852002000000020014B1868EF
:10055000704700BFE852002038B50446FFF7F6FFA9
:10056000631C1CBF054B1B78054618BFE418FFF73A
:10057000EDFF401B8442FAD838BD00BF00000020C8
:10058000074AD36823F4E0631B041B0C43F0BF63EA
:10059000000243F4003300F4E0600343D36070478B
:1005A00000ED00E0174B30B5DC68C4F30224C4F161
:1005B0000703251D042B28BF0423062D4FF001053A
:1005C00005FA03F303F1FF338CBF033C0024194009
:1005D000A14005FA04F4013C2240002842EA01024D
:1005E0004FEA0212AFBF00F1604000F00F00064B6F
:1005F000D2B2A5BF00F56140D2B21A5480F80023F0
:1006000030BD00BF00ED00E014ED00E04209012321
:1006100000F01F0003FA00F0014B43F8220070477E
:1006200000E100E00138B0F1807F0AD2064B074AB2
:100630005860F02182F823100020072298601A6089
:1006400070470120704700BF10E000E000ED00E0BF
:10065000044B1A6804280CBF42F0040222F0040282
:100660001A60704710E000E02DE9F04F85B00B688C
:10067000DFF89C81644A01934FF001090023019C3B
:1006800009FA03F707EA0406B74240F0AD804C6868
:1006900024F0100ABAF1020F16D14FEAD30C00EB86
:1006A0008C0C03F0070BDCF820504FEA8B0B4FF05B
:1006B0000F0E0EFA0BFE25EA0E0E0D6905FA0BF56C
:1006C00045EA0E05CCF820504FEA430C0325D0F83C
:1006D00000B005FA0CF5ED4304F0030E0BEA050B30
:1006E0000EFA0CFE0AF1FF3A4EEA0B0EBAF1010FB8
:1006F0000095C0F800E015D8D0F808E005EA0E0E25
:10070000CD6805FA0CFA4AEA0E0EC0F808E0D0F8F7
:1007100004E02EEA0707C4F3001E0EFA03FE4EEAB9
:1007200007074760C768009D3D408F6807FA0CF7D0
:100730003D43C560E50057D54FF0000BCDF80CB038
:10074000D8F84470314D47F48047C8F84470D8F861
:10075000447007F480470397039F23F0030707F1D2
:10076000804707F59C3703F0030CD7F808A04FEA41
:100770008C0C4FF00F0E0EFA0CFEA8422AEA0E0E59
:1007800039D005F58065A84237D005F58065A842C7
:1007900035D005F58065A84233D005F58065A842BF
:1007A00014BF0725042505FA0CF545EA0E05BD60C2
:1007B0001568F74314F4803F0CBF3D403543156086
:1007C000556814F4003F0CBF3D40354355609568B3
:1007D00014F4801F0CBF3D4035439560D568A402DA
:1007E00054BF3D403543D5600133102B7FF447AFF4
:1007F00005B0BDE8F08F5D46D5E70125D3E70225BA
:10080000D1E70325CFE700BF003C014000000240D4
:10081000003802400AB1816170470904FBE743696F
:10082000594041617047F0B506468BB0002864D04E
:100830000323344680F8B93301F018FC54F8100B48
:1008400001F01CF80FCC6D460FC50FCC0FC594E816
:10085000030085E80300371D97E80E00306800F0BC
:10086000CDFF0021306801F00FF8002133463246F9
:1008700006F110040125084682F83810D1870131AD
:100880000F2982F8395082F83B0010645064D0641C
:1008900002F11C02F0D10022D6F800E0114602F16C
:1008A000400083F8F821DA870EEB800001320F2A2E
:1008B00083F8F91183F8FB11C3F80012C3F804128E
:1008C000C3F80C12416003F11C03E8D10FCC6D4654
:1008D0000FC50FCC0FC594E8030085E803007046F0
:1008E00097E80E0000F0E8FF012386F8B93330687E
:1008F00001F005FB00200BB0F0BD0120FBE790F8F4
:10090000B833012B10B504460CD0012380F8B8335E
:10091000006801F0E8FA206800F0AAFF002084F8DF
:10092000B80310BD022010BD2DE9F04FD0F80090A3
:1009300087B00446484601F01CFB0290002840F0B6
:100940002E81206801F0E7FA002800F02881206855
:1009500001F0E1FA850748BF2268206842BF536969
:1009600003F00203536101F0D6FA10F400250AD017
:10097000206801F0D4FA09F530660746A246002542
:10098000002F40F00F81206801F0C5FA41030BD51C
:10099000206801F0CCFA2646039009F5106800257E
:1009A000039B002B40F03F81206801F0B4FA00283F
:1009B0000DDAD9F8043823F00103C9F804382046C9
:1009C00001F0D4FB2268536903F0004353612068AF
:1009D00001F0A1FA06050BD5D9F80838D80702D5D9
:1009E000204601F0ABFB2268536903F400635361B6
:1009F000206801F090FAC10437D509F500667368E4
:100A0000206823F001037360102100F0F1FF61689A
:100A100009F51063FF220298884240F092814FF05E
:100A2000FF33B361F36943F00113F361236B002BD0
:100A300000F08F81D6F8843043F00B03C6F8843081
:100A4000736C43F00B037364D9F80038217C206881
:100A500023F4FE63C9F8003804F56F7201F0A8FAB8
:100A60002268536903F480535361206801F053FAFC
:100A700082041DD5206801F080FA2068C36823F441
:100A80007053C36000F0DDFF002840F06B812268E6
:100A9000E0604FF400736361D36843F41053D36094
:100AA000204601F03AFB2268536903F40053536176
:100AB000206801F030FAC3062BD52268936923F031
:100AC00010039361D9F82060C6F34343022B06F06C
:100AD0000F0840F0A88147F6F0731E4214D01C277F
:100AE00007FB0847C6F30A163246D7F804124846F1
:100AF00001F0A3F9D7F804323344C7F80432D7F829
:100B000010321E44C7F810622268936943F0100344
:100B10009361206801F0FFF9070707D5204601F02F
:100B2000F8FA2268536903F008035361206801F062
:100B3000F2F9C60208D5E9B2204601F01FFB22688F
:100B4000536903F480135361206801F0E4F98002D3
:100B500008D5E9B2204601F00DFB2268536903F481
:100B600000135361206801F0D6F9410007D52046F3
:100B700001F008FB2268536903F080435361206849
:100B800001F0C9F942070AD523685D686B0702D5F1
:100B9000204601F0FBFA23685A6815435D6007B0F0
:100BA000BDE8F08FF80738D55FFA85FB5946206815
:100BB00001F0C5F910F0010F804621D02169012311
:100BC0009942B3600CD13169DAF80002C1F3120125
:100BD000411ACAF81012DAF804120844CAF80402DA
:100BE0005946204601F084FA2169012908D13DB90E
:100BF000D4F80C2222B904F56F72206801F0D8F9FC
:100C000018F0080F04D0204601F06CFA0823B360F6
:100C100018F0100F1CBF1023B36001357F08203679
:100C20000AF11C0AACE6039BDA0758D55FFA85FB8C
:100C30005946206801F08DF9C307074620D5D9F839
:100C400034380121A94023EA0103C9F834380123CB
:100C5000C8F808302369012B01BF736C326C9B18F4
:100C600073645946204601F04CFA2169012907D1E5
:100C700035B9E36C23B904F56F72206801F098F977
:100C8000380744BF0823C8F80830F90644BF1023CA
:100C9000C8F808307A0644BF4023C8F80830BB07BC
:100CA00044BF0223C8F808303F0618D523680493D0
:100CB000F76C336DFF1A336C9F4228BF1F46049BAD
:100CC00003F5106307F1030A03EB45134FEA9A0A91
:100CD0000593059B9B699BB2534508D82FB3039B93
:100CE0005B08013503931C3608F1200858E6326D85
:100CF000F36C9342F2D9002BF0D0376C04989B1A16
:100D00009F4228BF1F46237C00935A46BBB2716C9A
:100D100001F07FF8736C3B447364336D07F1030A91
:100D20003B444FEA9A0A3365D3E7049B012203F55B
:100D3000006BD3F83438AA4023EA0203CBF83430EE
:100D4000CDE702989A600130C3F808220290203360
:100D500061E6736943F00B037361336943F00B037E
:100D6000336171E60323E3604023636100F0F8FB25
:100D7000344B354A03449342236804D8DA6842F47A
:100D80007052DA608CE6314A314902448A4203D813
:100D9000DA6842F46052F4E7A0F574022D49A2F536
:100DA00010528A4203D8DA6842F45052E9E7A0F1BF
:100DB00083722949A2F5E7428A4203D8DA6842F4ED
:100DC0004052DEE7254A264902448A4203D8DA68BF
:100DD00042F43052D5E7234A234902448A4203D8D9
:100DE000DA6842F42052CCE7204A214902448A4280
:100DF00003D8DA6842F41052C3E7A0F1B7721D4974
:100E0000A2F558528A4203D8DA6842F40052B8E791
:100E1000194A1A4902448A42DA6894BF42F4E052FD
:100E200042F4C052ADE7062B7FF46EAE082204F503
:100E30006F7148461C2701F000F807FB0847C6F30E
:100E40000A165CE6405327FFFF340C00401E1BFFD0
:100E50003F420F007F4F12001FD6130060B6E5FE21
:100E60005FE3160000D3CEFE3F771B00C05BB3FEEE
:100E7000BF9121001F753800E05459FEDF9C4100EE
:100E800090F8B833012B10B5044609D0012380F83F
:100E9000B833006801F017F8002084F8B80310BDDB
:100EA000022010BD70B54EB2002E04464FF01C0556
:100EB00001F07F00B5BF05FB004105FB0141383162
:100EC00001F5FC71C0B2002EB8BFC880022BCB70F8
:100ED0004FEAD67504BF00230B7108704D7094F86B
:100EE000B8338A60012B09D0012384F8B833206815
:100EF00000F0C2FD002084F8B80370BD022070BD70
:100F00004BB2002B10B54FF01C02044601F07F00DD
:100F1000B5BF02FB004102FB0141383101F5FC7114
:100F2000DB0F08704B7094F8B833012B09D0012304
:100F300084F8B833206800F0DEFD002084F8B803A0
:100F400010BD022010BD38B501F07F051C2404FB44
:100F5000050104FB050401F5FC71C4F80C32002303
:100F6000C4F80422C4F8103284F8F93184F8F85136
:100F700003690068012B08BFC4F80822DAB21DB962
:100F800000F0DAFE002038BD00F010FEFAE71C2366
:100F900001F00F0103FB0101B1F81002704738B5F1
:100FA00001F07F051C2404FB050104FB0504383116
:100FB000E364002323650123626484F8393084F8F4
:100FC000385003690068012B08BFA264DAB21DB96A
:100FD00000F0B2FE002038BD00F0E8FDFAE738B5B9
:100FE0004BB2002B01F07F054FF01C02B5BF02FB96
:100FF000050102FB0101383101F5FC710122DB0F13
:10100000EDB28A700D704B7090F8B833934204467D
:101010000FD080F8B823006800F01DFF2DB904F54B
:101020006F72217C206800F0C3FF002084F8B803B1
:1010300038BD022038BD38B54BB2002B05464FF005
:101040001C0201F07F00B5BF02FB005102FB015101
:10105000383101F5FC71DB0F00248C7008704B7087
:1010600095F8B833012B09D0012385F8B8332868E7
:1010700000F010FF85F8B843204638BD022038BD87
:10108000006870B5436A21B943EA024383620020D5
:1010900070BD846A002503EB14434E1EECB2B442CB
:1010A00005F1010506DB3F3100EB810043EA024315
:1010B0004360ECE7403400EB8404646803EB1443C2
:1010C000ECE7036800205962704700002DE9F34106
:1010D000044618B9012002B0BDE8F0810368DD07BD
:1010E00010D42368980758D423681A0700F19A800F
:1010F00023685B0700F1B880A269002A40F01981DB
:101100000020E8E7A64B9A6802F00C02042A07D0F8
:101110009A6802F00C02082A0AD15B68590207D5C6
:101120009F4B1B689A03DCD56368002BD9D1D1E7AC
:1011300063689B4DB3F5803F11D12B6843F4803336
:101140002B60FFF703FA964D06462B689B03C8D425
:10115000FFF7FCF9801B6428F7D90320BBE7B3F540
:10116000A02F04D12B6843F480232B60E5E72A6885
:1011700022F480322A602A6822F480222A60002B1E
:10118000DFD1FFF7E3F906462B689F03A9D5FFF7E8
:10119000DDF9801B6428F7D9DFE7814B9A6812F0EC
:1011A0000C0F07D09A6802F00C02082A11D15B6874
:1011B0005E020ED47A4B1A68950702D5E268012ABE
:1011C00088D11A68216922F0F80242EAC1021A6045
:1011D0008AE7E268734BB2B101221A60FFF7B6F9F1
:1011E0006F4D06462B68980707D52B68226923F0B8
:1011F000F80343EAC2032B6076E7FFF7A7F9801BE9
:101200000228EFD9A9E71A60FFF7A0F9644D064656
:101210002B6899077FF568AFFFF798F9801B0228C4
:10122000F6D99AE76269604B7AB101221A60FFF73A
:101230008DF95B4D06466B6F9F073FF559AFFFF782
:1012400085F9801B0228F6D987E71A60FFF77EF937
:10125000534D06466B6F98077FF54AAFFFF776F957
:10126000801B0228F6D978E74D4B1A6C12F0805299
:1012700028D101921A6C42F080521A641B6C03F060
:1012800080530193019B0126484D2B68D9051BD53E
:10129000A368434D012B27D12B6F43F001032B672C
:1012A000FFF754F93E4D074641F288382B6F9B07F4
:1012B00039D5002E3FF420AF394A136C23F0805308
:1012C000136419E70026DFE72B6843F480732B6073
:1012D000FFF73CF907462B68DA05D9D4FFF736F952
:1012E000C01B0228F7D938E7052B04D12B6F43F038
:1012F00004032B67D0E72A6F22F001022A672A6FC6
:1013000022F004022A67002BCAD1FFF71FF941F22D
:10131000883807462B6F9807CBD5FFF717F9C01B06
:101320004045F7D919E7FFF711F9C01B4045BDD972
:1013300013E71B4DAB6803F00C03082B3FF4CAAE58
:101340001B4E0023022A336034D1FFF7FFF8074613
:101350002B6899011ED4226AE3691343626A43EA47
:101360008213E26A43EA0263A26A0D4C5208013A10
:1013700043EA02436B6001233360FFF7E7F8054659
:1013800023689A013FF5BCAEFFF7E0F8401B022846
:10139000F6D9E2E6FFF7DAF8C01B0228D8D9DCE676
:1013A0000038024000004742800E47420070004073
:1013B00060004742FFF7CAF804462B689B017FF59F
:1013C0009FAEFFF7C3F8001B0228F6D9C5E600BFA1
:1013D000134908B58B6803F00C03042B03D0082BCA
:1013E00003D0104808BD104808BD4A684B684968DA
:1013F00013F4800314BF0C480A48C1F3881118BFC6
:10140000002302F03F02A1FB0001FEF7F1FE044BB6
:101410005B68C3F3014301335B00B0FBF3F008BD2D
:10142000003802400024F40000127A002DE9F04157
:101430000D46044610B90120BDE8F081444B1A68FE
:1014400002F00F028A4228D321688F072DD4C807E3
:1014500040D43F4B1A6802F00F02954266D32268CF
:1014600051076CD4130707D53A4A2169936823F4CE
:10147000604343EAC1039360FFF7AAFF354B364A46
:101480009B68C3F30313D35CD840344B186000202F
:1014900007F012FE0020BDE8F081CAB21A701B6886
:1014A00003F00F039942C6D1CEE72A4B11F0040F87
:1014B0001EBF9A6842F4E0529A600E0742BF9A68D3
:1014C00042F460429A609A68A06822F0F0020243F7
:1014D0009A60BCE762681F4B012A1DD11B6813F498
:1014E000003FA8D01B4EB36823F003031343B3603F
:1014F000FFF72CF841F288380746B368626803F0BA
:101500000C03B3EB820FA4D0FFF720F8C01B4045BB
:10151000F3D90320BDE8F081911E01291B6802D890
:1015200013F0007FDDE713F0020FDAE7EAB21A707A
:101530001B6803F00F039D427FF47DAF8FE70549E1
:10154000E0688B6823F4E05303438B608AE700BFB5
:10155000003C024000380240C9970008D00100203A
:10156000014B1868704700BFD0010020044B054AAA
:101570009B68C3F34233D35C034A1068D84070477A
:1015800000380240D9970008D00100200F230360E3
:101590000B4B9A6802F0030242609A6802F0F00274
:1015A00082609A6802F4E052C2609B68DB0803F430
:1015B000E0530361034B1B6803F00F030B6070479C
:1015C00000380240003C024070470368DA6842F08D
:1015D0000102DA601A6842F001021A6000207047C6
:1015E000704770477047704703681A69910710B5D4
:1015F00004460ED5DA6892070BD56FF002021A6125
:101600009B6901229B07027677D0FFF7EAFF002350
:10161000237623681A69500710D5DA6851070DD56B
:101620006FF004021A619B69022213F4407F227654
:10163000204668D0FFF7D5FF0023237623681A6978
:1016400012070FD5DA6810070CD56FF008021A617F
:10165000DB6904229907227620465AD0FFF7C1FFA2
:101660000023237623681A69D20610D5DA68D006DB
:101670000DD56FF010021A61DB69082213F4407F68
:10168000227620464BD0FFF7ACFF00232376236859
:101690001A69D10708D5DA68D20705D56FF00102BB
:1016A0001A61204607F0B4FC23681A69100608D5B1
:1016B000DA68110605D56FF080021A61204600F045
:1016C0009CF823681A69520608D5DA68500605D5D1
:1016D0006FF040021A612046FFF785FF23681A6900
:1016E000910622D5DA6892061FD56FF020022046B7
:1016F0001A61BDE8104000F07FB8FFF771FF204687
:10170000FFF770FF83E7FFF76BFF2046FFF76AFFE5
:1017100092E7FFF765FF2046FFF764FFA0E7FFF7BA
:101720005FFF2046FFF75EFFAFE710BD224A036868
:1017300090420ED0B0F1804F0BD0A2F57C42904287
:1017400007D002F58062904203D002F58062904299
:1017500019D14A6823F070031343174A904204D109
:10176000CA6823F44073134318E0B0F1804FF7D0F8
:10177000124A9042F4D002F580629042F0D002F515
:1017800080629042ECD00E4A9042E9D002F580622D
:101790009042E5D002F580629042E1D003608B6810
:1017A000C3620B688362044B984204BF0B690363F6
:1017B00001234361704700BF000001400004004066
:1017C0000040014010B50446A0B190F8393003F054
:1017D000FF021BB980F83820FFF7F6FE022384F8D9
:1017E00039302068211DFFF7A1FF012384F839302B
:1017F000002010BD012010BD7047704784B038B57F
:1018000005AD85E80E000A9B012B044626D1836BAB
:1018100023F480338363C36823F4840323F04003F9
:10182000C360C36823F44013C360119B012B02BF44
:10183000C36843F48013C36000F0DEFB089B012BF8
:1018400007D1A36843F00603A360A36843F0200315
:10185000A360BDE83840002004B07047C36843F07F
:101860004003C36000F0C8FB4FF48033A363E5E797
:10187000836843F00103836000207047836823F08E
:10188000010383600020704708B5C368012923F075
:10189000C043C36008D1C36843F00053C360322023
:1018A000FEF75AFE002008BD0029F8D1C36843F0B6
:1018B0008043C360F3E7000084B02DE9F0410446A3
:1018C00007A880E80E00119E0A9FA36B8846A6B960
:1018D00043F40013A3630023C4F8003ED4F8003897
:1018E000C4F800380C9B012B04F500655ED1099902
:1018F00039B9204600F09EF807E043F40023A363C3
:10190000E9E71946204600F095F81021204600F03E
:101910006FF8204600F07EF800234FF0FF322B6175
:1019200019466B614FF09040AA614FF0FF0EEB61DA
:1019300004F5106243453BD1002104F530620846AE
:101940004FF0904E4FF0FF0C8B423ED12B69012F90
:1019500023F480732B6108D1234B2B632B6B43F44F
:10196000803343F003032B632B6B0023A3616FF0E1
:10197000804363611FB9A36943F01003A361A269A7
:101980001A4B1343A3610D9B1BB1A36943F00803DA
:10199000A361012E01BFA36943F0804343F0040318
:1019A000A361BDE8F041002004B070470321A0E727
:1019B000D2F800C0BCF1000FB4BF10601160013359
:1019C0001161C2F808E02032B4E7D2F80080B8F123
:1019D000000FB4BFC2F800E0106001311061C2F81E
:1019E00008C02032B0E700BF0001800000383C8012
:1019F000890141F02001064A0161013A05D00369DD
:101A000013F02003F9D1184670470320704700BF38
:101A1000410D03001023064A0361013A05D0036912
:101A200013F01003F9D1184670470320704700BF28
:101A3000410D0300D0F800381943C0F80018002009
:101A4000704700F50062D0F8080810F0060012D0C8
:101A5000936803F00603022B0CD0936803F006038F
:101A6000062B07D0936803F00603042B14BF002055
:101A7000022070470320704730B54B780C78D0F8BF
:101A80001C5800F50062012B1BD1A3409BB22B43D5
:101A900000F51060D36100EB44131A6812040ED4F1
:101AA0008A68C8781D68C2F30A0242F0805242F484
:101AB000004242EA804040EA8450284318600020F7
:101AC00030BD4FF48033A34000F530602B4300EB72
:101AD0004410D36103681B04F1D48B68C978026891
:101AE000C3F30A0343F0805343F4004343EA8143C2
:101AF00013430360E3E700F001B8000070B54B78D2
:101B0000012B0E46054609784FF0200326D100F53B
:101B1000106213FB01231A6822F400421A604FF08E
:101B200000621A604FF080421A601F4A013A01D1E8
:101B3000032070BD9C6814F08044F7D11021284622
:101B4000FFF756FF3178D5F81C2801238B409BB254
:101B500022EA0303C5F81C38204670BD00F5306248
:101B600013FB01231A6822F400421A604FF000624E
:101B70001A604FF080421A600B4A013AD8D0986838
:101B800010F01000F9D1D5F8043843F48063C5F89B
:101B90000438D5F81C384FF480328A4023EA020317
:101BA000C5F81C3870BD00BF410D0300F7B54B7878
:101BB0000C78012B4B6977D1202600F5106516FBB8
:101BC00004542669002B38D126F0FF5626F4C0169F
:101BD0002661266946F4002626612669F60CF6047D
:101BE0002661012A50D10C780E6905EB4414666118
:101BF000CE78012E0FD1D0F808480F7814F4807FEA
:101C00004FF0200414FB075427680CBF47F000571F
:101C100047F0805727600F7805EB4715012E2C6899
:101C200044F004442C6005D100929BB23A46C96846
:101C300000F0EFF8002003B0F0BDF60CF6042661CA
:101C400026698F6826F0FF5626F4C0162661DE1935
:101C5000013EB6FBF7F7374ED4F810E006EAC74668
:101C600046EA0E0626612769C3F312063E43266143
:101C7000CE78012E5AD1266926F0C0462661266903
:101C800046F000562661ACE7CE78012EB3D0002B8B
:101C9000AED091F800E0D0F83478012404FA0EF4C4
:101CA0003C43C0F83448A3E700F5306505EB441425
:101CB0002569ED0CED042561256925F0FF5525F416
:101CC000C01525618D68FBB92369C5F312051D4355
:101CD0002561236943F400232361012A04BFCB68F3
:101CE0006361CB78012B0AD1D0F8083813F4807FD8
:101CF00023680CBF43F0005343F0805323602368F4
:101D000043F00443236095E70A4E27692B44013BC7
:101D1000B3FBF5F306EAC3463E4326619BB2266950
:101D20005D43C5F3120535432561D6E7012AAED1DF
:101D300059E700BF0000F81F4B78012B70B50B78F6
:101D40004D6943D1202400F5106614FB03631C6920
:101D5000CDB924F0FF5424F4C0141C611C6944F470
:101D600000241C611C69E40CE4041C610D7806EB82
:101D70004513012A1C6844F004441C601BD10A6905
:101D80005A61002070BDE40CE4041C611C6924F05D
:101D9000FF5424F4C0141C618C68A54288BF4C61B8
:101DA0001C6944F400241C614C691D69C4F31204CD
:101DB0002C431C61DAE74B69002BE2D0D0F83428C1
:101DC0000123AB401343C0F83438DAE700F5306044
:101DD00000EB43100369DB0CDB040361036923F0B0
:101DE000FF5323F4C01303618B6805B14B61046991
:101DF00044F4002404610469C3F312032343012A59
:101E0000036104BFCB684361036843F0044303608C
:101E1000B7E710B59DF808404CB9033300F5805082
:101E200023F0030300EB02320B44994201D100205E
:101E300010BD51F8040B1060F7E7033222F00302E3
:101E40000A4400F58050914201D10846704703686A
:101E500041F8043BF7E74B780A78012B4FF0200359
:101E60000BD100F5106013FB02000368002B0BDBA5
:101E7000036823F08043036006E000F5306013FB45
:101E800002000368002BF3DA036843F400130360D5
:101E9000002070474B780A78012B0CBF00F51060CA
:101EA00000F53060202313FB0200036823F40013C5
:101EB0000360CB78023B012B9EBF036843F0805345
:101EC000036000207047D0F8003823F4FE63C0F8A8
:101ED0000038D0F80038090101F4FE611943C0F858
:101EE00000180020704708B5D0F8043823F002032A
:101EF000C0F804380320FEF72FFB002008BD08B50A
:101F0000D0F8043843F00203C0F804380320FEF789
:101F100023FB002008BD4269806910407047D0F85B
:101F2000183800F50060C0691840000C7047D0F800
:101F3000183800F50060C069184080B2704700F59D
:101F4000306303EB411100F500608A68406910407E
:101F5000704710B5D0F81048D0F8343800EB411075
:101F6000CB4000F51060DB018068DBB223431840F2
:101F700010BD406900F001007047D0F8003923F42B
:101F8000FF6323F00703C0F8003900F500639A6887
:101F900002F00602042A02BFD0F8002942F0030230
:101FA000C0F800295A6842F480725A6000207047D5
:101FB00010B50024C0F8104BD0F8104B44F40024A6
:101FC000C0F8104BD0F8104B44F01804C0F8104B78
:101FD000D0F8104B012900F5306344F0C04408BF2D
:101FE0004FF08023C0F8104B04BFC0F8142BC0F88A
:101FF000003B002010BD00000A4B013B01D1032033
:1020000070470269002AF8DA0369064A43F00103BF
:102010000361013AF3D0036913F00103F9D11846C3
:10202000704700BF410D030010B50C4C0C49002255
:10203000204601F07DF90B49204601F08EF90A494E
:10204000204601F02EF9204603230122E02100F072
:10205000F5FE2046BDE8104001F086B9EC520020A4
:1020600004000020A80000203800002010B50368FC
:10207000B3F1A04F86B02ED14FF4C8530193022381
:10208000029303230024049301A90A231348059310
:102090000394FEF7E9FA4FF4007301A90F48019386
:1020A00002940394FEF7E0FA0D4B5A6B42F0800263
:1020B0005A6300945A6C42F480425A645B6C03F495
:1020C00080430093432022460521009BFEF76AFAD5
:1020D0004320FEF79BFA06B010BD00BF000002408F
:1020E0000038024000F56F71D0F8EC0301F053B9ED
:1020F0001C2303FB0103D0F8EC03D3F8042201F006
:1021000077B91C2303FB0103D0F8EC035A6C01F0F0
:10211000A1B9D0F8EC0301F01DBA10B5C1680446AE
:10212000003118BF0121D0F8EC0301F001FAD4F816
:10213000EC03BDE8104001F0DCB9000010B5044626
:10214000D0F8EC0301F0F7F92268D2F8003E43F032
:102150000103C2F8003E236A23B1034A136943F026
:102160000603136110BD00BF00ED00E0D0F8EC03E2
:1021700001F0EAB9D0F8EC0301F0FAB9D0F8EC03B9
:1021800001F0F4B9D0F8EC0301F0F4B9D0F8EC03A5
:1021900001F0F2B908B50278002A35D11B4B0421B1
:1021A000C3F8EC03C0F820324FF0A04083E80300EE
:1021B0000221D9609961184601211A615A61DA61D8
:1021C0001A625A62D9621A63FEF72DFB20B14FF4EE
:1021D0009F710F4806F026FF80210C48FEF771FF23
:1021E000402200210948FEF74BFF40220121074809
:1021F000FEF746FF402202210448FEF741FF40223D
:1022000003210248FEF73CFF002008BD10550020C6
:10221000F095000808B5D0F82002FEF770FB0328FF
:102220009ABF024B185C022008BD00BFEC95000865
:1022300070B516461D46044600F0FCFE33460146C6
:102240002A46D4F82002FEF72DFE03289ABF024B3F
:10225000185C022070BD00BFEC95000810B5044664
:1022600000F0E8FE0146D4F82002FEF749FE0328FC
:102270009ABF024B185C022010BD00BFEC9500080D
:1022800008B5D0F82002FEF7AAFE03289ABF024B39
:10229000185C022008BD00BFEC95000808B5D0F816
:1022A0002002FEF7C8FE03289ABF024B185C0220EA
:1022B00008BD00BFEC95000811F0800FD0F8203267
:1022C0004FF01C021BBF01F07F0102FB013102FB3A
:1022D000013191F83A0008BF91F8FA017047000007
:1022E00008B5D0F82002FEF7CBFD03289ABF024BB9
:1022F000185C022008BD00BFEC95000870B50446CC
:1023000015461E4600F096FE334601462A46D4F88E
:102310002002FEF744FE03289ABF024B185C0220FD
:1023200070BD00BFEC95000870B5044615461E460A
:1023300000F080FE334601462A46D4F82002FEF71C
:1023400002FE03289ABF024B185C022070BD00BF3A
:10235000EC95000810B5044600F06CFE0146D4F878
:102360002002FEF714FE10BD0148FEF7DDBA00BFE3
:102370001055002012230B800048704720000020D9
:1023800004230B80004870473400002010B5044C33
:1023900004480A46214601F08EFA204610BD00BFCF
:1023A000005900205296000810B5044C04480A4613
:1023B000214601F080FA204610BD00BF00590020E0
:1023C0005896000810B5044C04480A46214601F00E
:1023D00072FA204610BD00BF005900206796000821
:1023E00010B5044C04480A46214601F064FA204620
:1023F00010BD00BF005900202F96000810B5044CF6
:1024000004480A46214601F056FA204610BD00BF96
:10241000005900203F9600082DE9F7431A4FDFF8D6
:1024200074901A4E4FF0FF31002002F0F7FE3D8805
:102430002C2D20D92C3D0021284606F0B7FC04465F
:10244000C8B12A464946806906F013FF4FF00008DC
:10245000E561A069A7F8008003F080FE012807D19C
:102460008DF8000041466846019403F02FFE10B934
:10247000204606F077FC0649304600F021FF304642
:1024800000F03BFFCEE700BF040C0020EC52002020
:10249000C40B0020F00300200B6873B51C4E1D48D0
:1024A0003488402B84BF40230B600D460A681A49CC
:1024B000204406F0DEFE2B681C44A4B2402B34807E
:1024C0001ED0164B1868D8B1154B01A91C800023EB
:1024D000338002F0D5FE019B3BB1124B4FF080528E
:1024E0001A60BFF34F8FBFF36F8F0F49D1E90023FD
:1024F000013243F10003C1E90023002002B070BDA6
:1025000005490A4800F0DCFE084800F0F6FEF4E752
:10251000060C0020C4030020C40B0020400C002047
:10252000040C002004ED00E0300C0020EC520020F0
:10253000064900220023C1E900230549C1E900231F
:10254000044B01221A7003F0EDBC00BF380C0020D0
:10255000300C0020480000202DE9F0410C460646D2
:1025600020B101283DD00020BDE8F0810B68934DDB
:10257000934F8A68D7F818822B60022B6A6011D1BA
:10258000FFF7D6FFE368AB602369EB6063692B61FB
:102590008C4BC8F814621E708B490822384600F034
:1025A000BFFEE0E7032B07D10124C8F81442FFF770
:1025B000BFFF844B1C70D6E7042B08D1CB686B613E
:1025C0000B69AB614B69EB618B692B62E4E75A1FC6
:1025D000012A03D808227C497948E0E7082BC2D1B8
:1025E000F8E7764B1A68022A17D102F100425B68BD
:1025F0000A608B6040F22C620023CB6020614B614B
:10260000A061CB6120624A628B62CB620B63AAB28B
:1026100021466B4801F06BF9A5E7042A40F0B98028
:102620006A4921606A4859685B69A16083424FF03A
:102630000001E16000F0A08035D866498B4200F0CF
:10264000A08012D806398B4256D0634A93425AD0A2
:10265000063A934232D164221023226163615F49BA
:1026600004F1180006F005FED1E75D498B4271D0F8
:102670005C4A93422ED0073A93421FD10F23236125
:1026800010236361584B04F1180203F10C0153F855
:10269000040B42F8040B8B42F9D119889B78118006
:1026A00093702B254BE05148834265D00BD850499D
:1026B0008B425CD00ED84F4A934251D00023236105
:1026C00014236361A3E7B3F1013F3AD008D84A4A23
:1026D0009342F3D10423236110236361002310E0AC
:1026E00013F1FE3F16D0454A9342E7D104232361FC
:1026F00010236361012304E010236361226140F22F
:10270000DC53A36183E704232361102363614FF447
:102710007A73F6E7062323611023636103F1005304
:10272000A3F506431A78364B43EA0263A361354B9F
:102730001A78013B1B7843EA0223E3611E2565609A
:1027400065E706232361102363612F4BA3614FF6D6
:10275000EE73F2E710236361226140F21663D0E763
:102760000423236110236361284B1B68C9E71023EE
:1027700063612261264BF8E7102322616361A16146
:1027800045E703232361142363611D4BA3611B25CC
:10279000D5E7052A06D15B68A36002F100422260FA
:1027A000002305E0062A05D11A4B0B6000238B603D
:1027B000E3602CE7082A7FF42AAFECE7080C00203E
:1027C000EC52002048000020E89600080400008039
:1027D000020201000C0101000701010074960008CB
:1027E0001101010014010100D89600080401020043
:1027F00002010200010102000501020004010101C1
:1028000040787500127AFF1F407875DD380C002083
:10281000300C00200600008008B5FFF789FE00207C
:1028200008BD000010B5074C07490022204600F003
:102830003FFD0649204600F043FDFFF779FE0020EA
:1028400010BD00BFEC520020085B0020C40B00202C
:1028500070B51B4ED6F81832D3F8143273BB194B2F
:102860001B78012553BB184CB1F5006F0A4628BFF1
:102870004FF400622560242102F12C05236163617D
:10288000A361E36123626362A362A160E260014627
:10289000656004F12C0006F0ECFCAAB2214630463B
:1028A00000F006FD304600F011FD0849D1E9002393
:1028B000013243F10003C1E9002370BD012070BD66
:1028C000EC52002048000020085B0020380C00205B
:1028D0000A4B1B7807B56BB9094A136843B90192D3
:1028E00006220092074908484FF4807201F0DAFF8F
:1028F000012000E0002003B05DF804FB4800002048
:10290000400C0020089700081924000870B50546FF
:102910000E460524A98BA869FFF79AFF30B1052060
:10292000013C02F0E9F914F0FF04F3D116B1284696
:1029300006F018FA012070BD2DE9F84F0024144F5D
:10294000DFF850A00646894625464FF0500B3B78ED
:1029500004F10108E4B2A34202D82846BDE8F88F8A
:102960000BFB04A44946A368C6F81832E368C6F80E
:102970001C32636830461B689847D6F81832A3604B
:102980000543D6F81C32E360EDB24446DFE700BFF2
:1029900047100020346300202DE9F84F0024144F25
:1029A000DFF850A00646894625464FF0500B3B788D
:1029B00004F10108E4B2A34202D82846BDE8F88F2A
:1029C0000BFB04A44946A368C6F81832E368C6F8AE
:1029D0001C32636830465B689847D6F81832A360AB
:1029E0000543D6F81C32E360EDB24446DFE700BF92
:1029F00047100020346300202DE9F8430B78394F4D
:102A000003F01F03012B05461CD0022B62D197F85F
:102A100000C0354A4FF0000E5FFA8EF4644525D2AF
:102A20008B8813F080003ED192F81180DBB2C6B2E1
:102A3000464547D202EB0009013099F83F9099458D
:102A4000F5D13FE000233878DFF89CE01A465026A5
:102A5000DCB284420AD206FB03EC01339CF803C0CB
:102A6000624491F804C0D2B26245F1D93B78A342E6
:102A700034D01D4E502303FB04639868C5F8180238
:102A8000D8685B68C5F81C029B682BB3284698473A
:102A9000502303FB0464D5F81832A360D5F81C3228
:102AA000E360BDE8F88392F81080002003F07F0314
:102AB000C6B2464506D202EB0009013099F83090C3
:102AC0009945F5D1137C9E420EF1010E02F15002A0
:102AD000A2D0CBE7FF24C9E71846D9E70020BDE81C
:102AE000F88300BF4710002034630020F8B51B4B6B
:102AF00005461B4893F800E000240646E3B29E45D5
:102B000029D9077C0022D3B29F4202D80134503029
:102B1000F4E794460132831893F82F308B42F2D1B8
:102B2000502303FB04639A68C5F81822DA68C5F8D5
:102B30001C225A68906920B163445269997C2846E6
:102B40009047502303FB0464D5F81832A360D5F8EE
:102B50001C32E360F8BD0020F8BD00BF4710002024
:102B600034630020F8B51C4B05461C4893F800E080
:102B700000240646E3B29E452BD9477C0022D3B2FF
:102B80009F4202D801345030F4E794460132831852
:102B900093F83E308B42F2D1502303FB04639A68D2
:102BA000C5F81822DA68C5F81C225A68926972B111
:102BB0006344284693F821109047502303FB046494
:102BC000D5F81832A360D5F81C32E360F8BD104682
:102BD000F3E70020F8BD00BF471000203463002059
:102BE0002DE9F8430026DFF85090DFF850800546C5
:102BF000344699F80030F7B2BB4202D82046BDE80F
:102C0000F883502303FB07839A68C5F81822DA6813
:102C10005B68C5F81C221B691BB128469847044312
:102C2000E4B2502303FB0783D5F818229A60D5F845
:102C30001C22DA600136DCE74710002034630020F4
:102C40002DE9F8430026DFF85090DFF85080054664
:102C5000344699F80030F7B2BB4202D82046BDE8AE
:102C6000F883502303FB07839A68C5F81822DA68B3
:102C70005B68C5F81C22DB681BB1284698470443F3
:102C8000E4B2502303FB0783D5F818229A60D5F8E5
:102C90001C22DA600136DCE7471000203463002094
:102CA0002DE9F8430026DFF85090DFF85080054604
:102CB000344699F80030F7B2BB4202D82046BDE84E
:102CC000F883502303FB07839A68C5F81822DA6853
:102CD0005B68C5F81C22DB691BB128469847044392
:102CE000E4B2502303FB0783D5F818229A60D5F885
:102CF0001C22DA600136DCE7471000203463002034
:102D0000F8B51B4B05461B4893F800E00024064627
:102D1000E3B29E452AD9077C0022D3B29F4202D853
:102D200001345030F4E794460132831893F82F3081
:102D30008B42F2D1502303FB04639A68C5F8182232
:102D4000DA68C5F81C225A68126A6AB163442846D8
:102D5000997C9047502303FB0464D5F81832A36094
:102D6000D5F81C32E360F8BD1046F3E70020F8BD4B
:102D70004710002034630020F8B51C4B05461C4862
:102D800093F800E000240646E3B29E452BD9477C29
:102D90000022D3B29F4202D801345030F4E7944667
:102DA0000132831893F83E308B42F2D1502303FB5B
:102DB00004639A68C5F81822DA68C5F81C225A68B4
:102DC000526A72B16344284693F821109047502309
:102DD00003FB0464D5F81832A360D5F81C32E36015
:102DE000F8BD1046F3E70020F8BD00BF47100020F3
:102DF00034630020024B1B8803800248704700BFE9
:102E000044100020440C00200A230380004870472F
:102E100090000020024B1B8803800248704700BFCF
:102E200044100020440C0020024B1B880380024801
:102E3000704700BF44100020440C00202DE9F04FE3
:102E4000724C89B08146039323880191029243B961
:102E50006F4B704A03CB1B781372092310605160CB
:102E60002380D9F81412002900F0CE806A4B9942D1
:102E700000F0CA80DFF8AC8198F80030042B00F233
:102E8000C38066489DF80450624E654F50225A43F5
:102E9000831885549DF808205A709DF80C209A706C
:102EA000D9F818229A60D9F81C225960DA600DF11D
:102EB0001E00CB6A9847BDF81E30C3180546049320
:102EC0004FF0FF0B049B9D4211D32388B3701B0A64
:102ED000F370534B534A1B783371137801331370DB
:102EE0004D4BC9F81432002009B0BDE8F08FB4F89A
:102EF00000A02A7806EB0A032946184606F0B9F91D
:102F0000297842780AEB010E1FFA8EFE042A034646
:102F1000A4F800E00D4431D020D8022AD2D10279A1
:102F20000592DFF80CC116F80A20BCE80300C2F1D4
:102F300008021EFA82F222803A7846F80A009A7055
:102F40009DF81420DA709DF8042059601A719DF8DC
:102F500008205A719DF80C209A71B3E7052A22D0F7
:102F6000242AAFD18278012A48D0062AAAD13A78F9
:102F7000C178013AD2B21144C17041E081783A7807
:102F80008B450DD0501C9A70244A98F80030387048
:102F9000502000FB03238B46DA780132DA7091E788
:102FA000013A9A708EE78078DFF870E098F80010A8
:102FB000502210F0800F02FB01E211D0117C02EBD5
:102FC000010E0131117418490A788EF8302000F092
:102FD0007F008EF81200501C087062F07F02E0E75C
:102FE000517C02EB010E0131517410498EF8210021
:102FF0000A788EF83F20501C0870D2E73A78013AE0
:1030000019790A441A715DE702206DE74410002027
:1030100084000020440C00204C0000203463002079
:103020004610002047100020A4000020A50000202A
:103030009C0000202DE9F04311F07F0E44D0244B7A
:103040001E78244B00221D464FFA81FCD4B2A642C2
:103050003AD9D0F818729C68A74222D1D0F81C72D5
:10306000DC68A7421DD1BCF1000F14DB93F811807E
:103070000024E7B2B84514D92746013403EB04090C
:1030800099F820908945F4D1502303FB02523A4429
:1030900092F83F1018E093F810800024E7B2B8458A
:1030A00002D801325033D1E72746013403EB04093B
:1030B00099F81190F145F1D1502303FB02523A44A3
:1030C00092F8301041F080010846BDE8F08300BF5F
:1030D0004710002034630020D0F818321BB10020C4
:1030E000C3F81402704702207047D0F81C3210B5A4
:1030F000D0F818425BB194F80002FF2807D09B6813
:1031000094F8012221469847FF2384F800320020DA
:1031100010BD00003E23038000487047E0000020FF
:103120003E23038000487047200100203E23038097
:10313000004870476C0100200A2303800048704754
:103140006001002038B50546D0F81842FFF702F9B3
:10315000D5F81832C4F80C024BB1D5F81C32D4F8AB
:103160000402DB6804F503719847002038BD022093
:1031700038BD0000F8B50F7817F0600306460C461E
:1031800023D0202B19D1CA884B78C2B13906D0F888
:1031900018520BD5D0F81C1218468F682946B8472C
:1031A000E2882946304600F0A2FB06E085F80032AE
:1031B00085F80122294600F0AFFB0020F8BDD0F8C9
:1031C0001C0284681846A047F7E74B780A2BF4D115
:1031D00001220149E7E700BF4810002010B5812116
:1031E0000446FFF73BF801212046FFF737F882211C
:1031F0002046FFF733F8D4F8183253B1D4F81C3214
:103200005B689847D4F8180206F01CF80023C4F84D
:103210001832002010BDF8B5037C04467BBB4FF488
:10322000007302228121FFF703F84FF4007302229A
:1032300001212046FEF7FCFF0823032282212046BD
:10324000FEF7F6FF4FF4077005F0F4FF0646C4F8EA
:10325000180220B3D4F81C321B689847277C00253D
:10326000C6F81452C6F8185287B94FF40073D6F84E
:10327000042201212046FFF757F83846F8BD4023C5
:1032800002228121FEF7D4FF4023D0E74023D6F865
:10329000042201212046FFF747F82846F8BD012007
:1032A000F8BD19B1C0F81C12002070470220704709
:1032B000D0F818320020C3F80812C3F81022704763
:1032C000D0F818320020C3F804127047D0F8182242
:1032D00010B572B1D2F81442012364B9C2F81432A5
:1032E0008121B2F81032D2F80822FFF707F8204601
:1032F00010BD022010BD184610BDD0F8182210B520
:1033000062B1047C44B94FF40073D2F80422012165
:10331000FFF70AF8002010BD4023F6E7022010BD99
:1033200008B513460A468221FEF7E8FF002008BDD3
:1033300008B580B1D0F8143213B10023C0F81432AC
:1033400009B1C0F81012012380F8FC310270FEF7B9
:1033500021FF002008BD022008BD19B1C0F81412D9
:10336000002070470220704708B5FEF753FF002089
:1033700008BD08B5D0F814320BB9022008BD1B688F
:1033800098470028F9D108BD08B5D0F814325B6819
:103390009847002008BD38B5044600F50275284658
:1033A00000F075FA012394F80812C4F8F431B4F867
:1033B0000E32C4F8F83101F01F03012B0ED007D3F1
:1033C000022B10D001F080012046FEF759FF03E0E8
:1033D0002946204600F0E6F8002038BD2946204660
:1033E00000F0DAF9F8E72946204600F0EDF9F3E7B6
:1033F00038B50446154611BBD0F8F431032B0FD174
:10340000D0F80C31D0F8102193420BD99B1A9A4274
:1034100028BF1A46C0F80C3192B2294600F08BFA48
:10342000002038BDD0F814321B6923B190F8FC217C
:10343000032A00D19847204600F085FAF0E7D0F83B
:1034400014329B69002BEBD090F8FC21032AE7D1C2
:103450009847E5E770B5134604460E4600293DD16E
:10346000D0F8F421022A0FD1C569026A954214D915
:10347000AA1AC261194692B200F046FA33461A46B9
:1034800019462046FEF750FF94F80032012B02D176
:10349000002384F80032002070BD8369B3FBF2F58D
:1034A00002FB153565B99A420AD8D0F8F821934243
:1034B00006D22A4600F028FAC4F8F8512B46DEE777
:1034C000D4F81432DB682BB194F8FC21032A01D123
:1034D00020469847204600F041FAD5E7D0F814324C
:1034E0005B69002BD7D090F8FC21032AD3D19847F1
:1034F000D1E738B500220446114640254023FEF7A7
:1035000097FE2B46C4F81051002280212046FEF77A
:103510008FFE012384F8FC31D4F8183225622BB1D8
:10352000D4F8143221795B6820469847002038BDD2
:1035300001740020704790F8FC3180F8FD310423BD
:1035400080F8FC310020704790F8FD3180F8FC31A4
:103550000020704708B590F8FC21032A04D1D0F868
:103560001432DB6903B19847002008BD0020704782
:10357000002070470020704708B5012280F8FC2128
:10358000D0F81422017952689047002008BD10B588
:1035900080210446FEF774FE20460021BDE810405D
:1035A000FEF76EBE37B54B7804460D46092B79D829
:1035B000DFE813F0C900E5007800D90078006D005D
:1035C0000A007800B9008D004B881A0A013A062AD1
:1035D00068D8DFE802F0041C296767495200D0F878
:1035E00010321B68207C0DF106019847BDF80620BB
:1035F000002A67D0EB88002B64D09A4228BF1A4675
:10360000ADF806200146204600F071F95AE0027C30
:10361000D0F8143232B99B6A0DF1060098470223A4
:103620004370E3E7DB6AF7E7DBB2052B3AD8DFE864
:1036300003F003070B0F1317D0F810325B68D1E7C4
:10364000D0F810329B68CDE7D0F81032DB68C9E7BC
:10365000D0F810321B69C5E7D0F810325B69C1E7BA
:10366000D0F810329B69BDE7037CDBB9D0F8143287
:103670000DF106005B6B9847B8E7037C93B9D0F86F
:1036800014320DF106001B6B98470723C8E78B889F
:1036900043B9CB8833B990F8FC318D78032B05F012
:1036A0007F0503D12046FFF772FF0BE080F8FE5143
:1036B0002946FEF715FE204600F045F92DB10223FC
:1036C00084F8FC31002003B030BD0123F8E789788D
:1036D000304D01292970E5D890F8FC31022B0CD02F
:1036E000032BDFD1B1B9022380F8FC314160FFF731
:1036F0004BFE204600F027F9E4E70029F9D001212C
:103700000323416080F8FC312046FFF732FE022897
:10371000EFD1C7E741680129EBD0C9B2FFF734FE0A
:1037200029786160F0E7CA88012ABBD190F8FC31A2
:10373000022B03D0032BB5D1011D64E70146002302
:1037400041F8083F5FE790F8FC31023B012BA9D814
:103750000023C360D0F804320BB10223C3600222FD
:1037600004F10C014FE74B88012BABD1C4F80432B4
:10377000D4F8143229469B6820469847B9E790F858
:10378000FC31023B012B8DD84B88012B9AD10023B1
:10379000ECE700BF4910002038B590F8FC31032B4E
:1037A00004460D460DD10B79042B0AD8D0F81432FB
:1037B0009B689847EB8813B9204600F0C4F80020B6
:1037C00038BDFFF7E4FEFAE770B50A788E8802F09C
:1037D0006002202A04460D46F3B205D1D0F8143217
:1037E0009B689847002070BD4A78012A1CD02AD3D4
:1037F000032AF7D190F8FC21022A40D0032A02D0F4
:10380000FFF7C5FEEEE74A8822B95E0602D01946E8
:10381000FEF736FDD4F8143229469B6820469847B7
:10382000204600F090F8DDE790F8FC21022A26D02F
:10383000032AE5D14A88002AD4D15906F0D0194686
:10384000FEF72CFDE6E790F8FC21022A17D0032AA8
:10385000D6D103F07F0516F0800F00EB0515194651
:1038600014BF143505F58275FEF726FD68B10123F6
:103870002B6002222946204600F039F8B2E75A06AA
:10388000B0D01946FEF7FCFCACE72860F1E70B78F6
:1038900003704B784370CA788B7803EB0223438024
:1038A0004A790B7903EB02238380CA798B7903EB86
:1038B0000223C380704730B588B105462B1A15F82E
:1038C000014BDBB2002CF9D15B00023313800B708B
:1038D00003234B700138022310F8015F05B930BD96
:1038E0005A1CD2B2CD540233DBB28C54F4E710B57B
:1038F00013460222C0F8F42183610A46C361002105
:10390000FEF7FCFC002010BD08B513460A46002156
:10391000FEF7F4FC002008BD10B513460322C0F8E2
:10392000F421C0F808310A46C0F80C310021FEF736
:10393000FBFC002010BD08B513460A460021FEF727
:10394000F3FC002008BD08B50423C0F8F4310023BF
:103950001A461946FEF7D2FC002008BD08B505231B
:10396000C0F8F43100231A461946FEF7DDFC0020AA
:1039700008BD08B501F06CF8002008BD30B5B0F9FD
:103980000840028A0B4690E8220085B0842C14BFC0
:103990000334002403A801900094284600F082FF1D
:1039A00001280CBF0398002005B030BD08B50028E1
:1039B00008BF012001F0A0F9002008BD08B501F002
:1039C0006FFB012803D0BDE8084000F023BA08BD12
:1039D00010B5182000F010FB044620B1002340F879
:1039E000043B00F011F9204610BD00002DE9F0471E
:1039F000089F0D4690469946064640B94FF0500341
:103A000083F31188BFF36F8FBFF34F8FFEE711F081
:103A10007F4A08D04FF0500383F31188BFF36F8FB4
:103A2000BFF34F8FFEE741B94FF0500383F3118886
:103A3000BFF36F8FBFF34F8FFEE701F031FB48BB41
:103A400047B34FF0500383F31188BFF36F8FBFF379
:103A50004F8FFEE743BB97B1B8F1000F0CBF0021B9
:103A60004FF08071B9F1000F01D041F080613A460A
:103A70002943301D01F00AFABA4600241AE0BA467A
:103A800018E09D4233D1B8F1000F30D024EA05058B
:103A900035602CE001F018F8346805EA0403B9F148
:103AA000000FD7D09D42D6D1B8F1000F02D024EA42
:103AB0000503336001F0A8F8BAF1000F1BD038B944
:103AC0000E4B4FF080521A60BFF34F8FBFF36F8FD2
:103AD00001F08CFB830104460BD400F033F9346809
:103AE00005EA0403B9F1000FCBD1002BCBD100F0D4
:103AF0004BF924F07F442046BDE8F08704ED00E058
:103B000070B50C46054640B94FF0500383F3118859
:103B1000BFF36F8FBFF34F8FFEE711F07F4F08D0D9
:103B20004FF0500383F31188BFF36F8FBFF34F8FB4
:103B3000FEE700F007F92E6826EA04042C6000F086
:103B400023F9304670BDF8B50F46044640B94FF032
:103B5000500383F31188BFF36F8FBFF34F8FFEE7DE
:103B600011F07F4508D04FF0500383F31188BFF365
:103B70006F8FBFF34F8FFEE700F10C0600F0A4FF3C
:103B8000236820693B4323608642216806D121EAED
:103B90000501216001F038F82068F8BD90E8880040
:103BA00013F0806F23F07F4203D10A4204D13846DC
:103BB000EAE732EA010EFAD1DB0100D5154341F004
:103BC000007101F0D1F9F2E738B5044600F07CFF4E
:103BD00004F10C05636833B9204600F09FFABDE894
:103BE000384001F011B82069A84208D14FF05003C5
:103BF00083F31188BFF36F8FBFF34F8FFEE74FF052
:103C0000007101F0B1F9E5E700F1080343604FF0FE
:103C1000FF32C360036100238260036070470023AA
:103C20000361704743684B609A688A609A68516084
:103C30009960036808610133036070470A68531C88
:103C400030B50AD103695A684A6091608B60596047
:103C5000036808610133036030BD00F108035C684C
:103C60002568AA42EFD32346F9E7416882680369D1
:103C70008A60826851605968884208BF5A60002291
:103C80000261186801381860704700000A4B1B6811
:103C9000013308D04FF0500383F31188BFF36F8FC7
:103CA000BFF34F8FFEE74FF0500383F31188BFF34C
:103CB0006F8FBFF34F8FFEE7AC010020064800680E
:103CC000006880F3088862B661B6BFF34F8FBFF318
:103CD0006F8F00DF00BF000008ED00E0DFF80C0090
:103CE000016841F4700101607047000088ED00E058
:103CF0004FF0807340F8043C074B40F80C3C21F037
:103D000001016FF0020340F8081C40F8202C40F835
:103D1000243C4438704700BF8D3C00080000000080
:103D2000074B19680868B0E8F04F80F30988BFF3C3
:103D30006F8F4FF0000080F311887047AFF3008061
:103D4000684C00204FF0500383F31188BFF36F8F4E
:103D5000BFF34F8F0A4A13680133012B13600DD153
:103D6000084B1B6813F0FF0F08D04FF0500383F38C
:103D70001188BFF36F8FBFF34F8FFEE7704700BF0F
:103D8000AC01002004ED00E0084A136843B94FF08D
:103D9000500383F31188BFF36F8FBFF34F8FFEE79C
:103DA000013B13600BB983F311887047AC0100200D
:103DB000EFF30980BFF36F8F154B1A681EF0100FD9
:103DC00008BF20ED108A20E9F04F10604DF8043D47
:103DD0004FF0500080F31188BFF34F8FBFF36F8F08
:103DE00000F0E8FF4FF0000080F3118808BC19686C
:103DF0000868B0E8F04F1EF0100F08BFB0EC108A52
:103E000080F30988BFF36F8F704700BFAFF3008066
:103E1000684C002008B54FF0500383F31188BFF3BE
:103E20006F8FBFF34F8F00F05DFE18B1034B4FF063
:103E300080521A60002383F3118808BD04ED00E06E
:103E4000064B4FF47A721B68B3FBF2F3044A013B52
:103E50001360044B07221A60704700BFD001002096
:103E600014E000E010E000E0314B324A13B519686D
:103E7000914208D14FF0500383F31188BFF36F8F45
:103E8000BFF34F8FFEE71A682B4B9A4208D14FF0D1
:103E9000500383F31188BFF36F8FBFF34F8FFEE79B
:103EA000264B1A78D2B20192FF221A701B78244A4C
:103EB000DBB28DF803309DF8033003F0500313702C
:103EC000204B07221A6000219DF80300000602F132
:103ED000FF3423D401B11A601A68120202F4E062BE
:103EE0001A60019B154ADBB21370174B1A6842F433
:103EF00070021A601A6842F070421A60FFF7A0FF61
:103F0000124B00221A60FFF7E9FE114A136843F0D2
:103F100040431360FFF7D2FEFFF7B8FE9DF8032081
:103F20005200D2B28DF8032001212246CCE700BF17
:103F300000ED00E071C20F4170C20F4100E400E0EB
:103F40004A1000204C10002020ED00E0AC010020C1
:103F500034EF00E0EFF305830F2B0ED9104A9B5C82
:103F6000104A12789A4208D94FF0500383F311880F
:103F7000BFF36F8FBFF34F8FFEE70B4B0B4A1B68EE
:103F8000126803F4E063934208D94FF0500383F3BF
:103F90001188BFF36F8FBFF34F8FFEE7704700BFED
:103FA000F0E300E04A1000200CED00E04C1000208F
:103FB00010B50F4B1A68824218D35C6819198842F1
:103FC00001BF4168184609195960446801198A42BD
:103FD00007D1084909688A421FBF51681268091948
:103FE00041609842026018BF186010BD1346E1E7B7
:103FF000604C0020501000202DE9F041044600F0F4
:1040000063FD4049404D0B680BBB404A56071FBF3C
:10401000D01D20F0070002F570531B1A14BF024692
:104020004FF470531344083B23F00703384E0B60E2
:1040300000207060326058601860981A1360354B29
:1040400050601860344B18604FF000432B602F68AD
:10405000274216D1002C41D004F1080358071CBF99
:1040600023F00703083363B12B4A1668B342904626
:1040700007D8274A15686868834204D809688D42C2
:1040800007D100242AE02C68002CF7D02A462546C8
:10409000F1E7296814681160C21A102A0FD9E818CC
:1040A000410708D04FF0500383F31188BFF36F8F9F
:1040B000BFF34F8FFEE742606B60FFF779FF154952
:1040C0006B680868F61A1F4386424FF00003C8F871
:1040D000006038BF0E6008346F602B6000F094FD04
:1040E0000CB904F0AEFE630708D04FF0500383F321
:1040F0001188BFF36F8FBFF34F8FFEE72046BDE8F7
:10410000F08100BF50100020544C002054100020BB
:10411000604C00205C4C0020584C002010B5044638
:1041200070B3184A50F8043C1268134208D14FF09B
:10413000500383F31188BFF36F8FBFF34F8FFEE7F8
:1041400050F8081C41B14FF0500383F31188BFF3BE
:104150006F8FBFF34F8FFEE723EA020340F8043C62
:1041600000F0B2FC084A54F8043C1168A4F10800BD
:104170000B441360FFF71CFFBDE8104000F044BD86
:1041800010BD00BF544C0020584C002070B515469F
:10419000026C866B044642B905689DB9406800F020
:1041A000D5FF65600136A66370BD6DB9806805F006
:1041B00060F8A368226C13446268A360934201D341
:1041C0002368A3600020EDE7C06805F052F8236C77
:1041D000E26821685B421A448A42E2603EBF62683C
:1041E0009B18E360022DEDD10EB1013EEAE73046A7
:1041F000D8E7034610B41A6C084662B1D9685C6807
:104200001144A142D96024BF1968D960D9685DF80A
:10421000044B05F02EB85DF8044B704770B50446AA
:10422000FFF790FD94F8455004F124066DB2002D7F
:1042300014DCFF2384F84530FFF7A6FDFFF782FD6D
:1042400094F8445004F110066DB2002D12DCFF23E7
:1042500084F84430BDE87040FFF796BD636A002BD8
:10426000E7D0304600F03EFE08B100F00DFF013D02
:104270006DB2DCE72369002BE9D0304600F032FE56
:1042800008B100F001FF013D6DB2DEE738B50D4623
:10429000044640B94FF0500383F31188BFF36F8F8A
:1042A000BFF34F8FFEE7FFF74DFD206CE36B2268F5
:1042B000A2604343D1181B1A13446160E3600021DC
:1042C000FF23A16384F8443084F8453095B923690D
:1042D00063B104F1100000F005FE38B10A4B4FF055
:1042E00080521A60BFF34F8FBFF36F8FFFF74CFD03
:1042F000012038BD04F11000FFF786FC04F1240012
:10430000FFF782FCF2E700BF04ED00E070B50D4658
:10431000064640B94FF0500383F31188BFF36F8F07
:10432000BFF34F8FFEE748434830FFF765FE044672
:1043300038B145B92060E663256401212046FFF7C6
:10434000A5FF204670BD00F148030360F3E710B5F8
:104350000C4640B94FF0500383F31188BFF36F8FC1
:10436000BFF34F8FFEE7884208D24FF0500383F32C
:104370001188BFF36F8FBFF34F8FFEE7022200213A
:10438000FFF7C4FF00B1846310BD00002DE9FF47B3
:10439000894601921F46044640B94FF0500383F30B
:1043A0001188BFF36F8FBFF34F8FFEE7002940F0F6
:1043B0008880036C002B00F084804FF0500383F35F
:1043C0001188BFF36F8FBFF34F8FFEE7019E002E62
:1043D00000F082804FF0500383F31188BFF36F8F9A
:1043E000BFF34F8FFEE7019D1DB9FFF7CDFC002005
:1043F00058E016B902A800F0FDFDFFF7C5FC00F07B
:1044000063FBFFF79FFC94F84430FF2B08BF84F850
:10441000448094F84530FF2B08BF84F84580FFF7AF
:10442000B3FC01A902A800F0F5FD002843D1FFF775
:1044300089FCA66BE56BFFF7A7FCAE4235D101996D
:1044400004F1100000F008FD2046FFF7E7FE00F041
:10445000DBFB38B94FF08053CAF80030BFF34F8F01
:10446000BFF36F8F0126FFF76DFCA26BE36B9A42DF
:1044700001D3022FB7D13A4649462046FFF786FEC0
:10448000636A1BB104F1240000F02CFD38B1194B14
:104490004FF080521A60BFF34F8FBFF36F8FFFF75B
:1044A00073FC012004B0BDE8F0872046FFF7B6FE9C
:1044B00000F0AAFBD6E72046FFF7B0FE00F0A4FB11
:1044C00095E7022F02D1E36B012B0AD100F0E8FD42
:1044D00000283FF47BAF00264FF00008DFF814A05F
:1044E000C1E74FF0500383F31188BFF36F8FBFF321
:1044F0004F8FFEE704ED00E02DE9F8438846914632
:104500001F46044640B94FF0500383F31188BFF3B0
:104510006F8FBFF34F8FFEE709BB036CFBB14FF00A
:10452000500383F31188BFF36F8FBFF34F8FFEE704
:1045300004F1240000F0D6FC002834D0B9F1000FBB
:1045400031D00120C9F8000086F31188BDE8F88356
:1045500001356DB284F8455025E00020F4E7022FC4
:1045600002D1E36B012B20D1FFF7F4FCEFF31186AE
:104570004FF0500383F31188BFF36F8FBFF34F8F5A
:10458000A26BE36B9A4201D3022FE6D194F8455017
:104590003A466DB241462046FFF7F8FD6B1CD7D175
:1045A000636A002BC4D10120CEE74FF0500383F3A0
:1045B0001188BFF36F8FBFF34F8FFEE72DE9FF47E1
:1045C000884601929946044640B94FF0500383F360
:1045D0001188BFF36F8FBFF34F8FFEE7002940F0C4
:1045E000A580036C002B00F0A1804FF0500383F3F3
:1045F0001188BFF36F8FBFF34F8FFEE7019E002E30
:1046000000F09A804FF0500383F31188BFF36F8F4F
:10461000BFF34F8FFEE7636AE660002B6DD004F1B5
:1046200024005FE0019D1DB9FFF7AEFB284667E05F
:1046300016B902A800F0DEFCFFF7A6FB00F044FA72
:10464000FFF780FB94F84430FF2B08BF84F84470D8
:1046500094F84530FF2B08BF84F84570FFF794FBB2
:1046600001A902A800F0D6FC002852D1FFF76AFB8E
:10467000A56BFFF789FB002D45D1236833B9FFF700
:1046800061FB606800F01CFDFFF77EFB019904F1FF
:10469000240000F0E1FB2046FFF7C0FD00F0B4FA73
:1046A00038B94FF08053CAF80030BFF34F8FBFF3D3
:1046B0006F8F0126FFF746FBA56B002DB2D0414658
:1046C0002046E668FFF795FDB9F1000FA3D12368F6
:1046D000013DA56313B900F095FD6060236963B1E6
:1046E00004F1100000F0FEFB38B1154B4FF0805282
:1046F0001A60BFF34F8FBFF36F8FFFF745FB0120A9
:1047000004B0BDE8F0872046FFF788FD00F07CFA92
:10471000CFE72046FFF782FD00F076FAFFF712FBA5
:10472000A56BFFF731FB002DC3D17FE700F0B8FC8C
:1047300000283FF463AF00260027DFF804A0B9E7A4
:1047400004ED00E010B5044640B94FF0500383F388
:104750001188BFF36F8FBFF34F8FFEE7FFF7F2FAB9
:10476000A46BFFF711FB204610BD000030B5074ACF
:10477000002352F8335002EBC3041DB942F8331042
:10478000606030BD0133082BF3D130BDC46400201C
:1047900010B5084A002302EBC3014C68844204D1DF
:1047A000002042F83300486010BD0133082BF2D1DD
:1047B00010BD00BFC464002010B5044640B94FF0DE
:1047C000500383F31188BFF36F8FBFF34F8FFEE762
:1047D000FFF7DEFF2046BDE81040FFF79FBC00005A
:1047E000064A13681968064B19B94FF0FF321A6070
:1047F00070471268D268D2685268F8E76C4C0020A3
:10480000444D0020F8B51B4B1B4E1D680446306814
:1048100004300F46FFF729FA334640B93168174E86
:10482000C96A32680120884022EA00023260621CB4
:1048300007D137B1196812480431BDE8F840FFF7D5
:10484000F1B92C441A68A542546007D90D4A106882
:104850001968BDE8F8400431FFF7F0B90A4A10685A
:1048600019680431FFF7EAF9084B1A68944238BF17
:104870001C60F8BD8C4D0020684C0020144D0020B9
:10488000644D0020704C00206C4C0020444D0020F2
:104890004FF0500383F31188BFF36F8FBFF34F8F37
:1048A000FEE700002DE9F84F4FEA820A80465046A5
:1048B0000D4699460B9EFFF79FFB0746002800F028
:1048C0009C805420FFF798FB0446002800F092805B
:1048D00052460763A521384604F0F0FC236BAAF189
:1048E000040A9A442AF0070A6B1E04F134020F35B9
:1048F000597802F8011B13F8011F09B1AB42F7D137
:104900000A9D062D28BF06254FF0000B271DE562E6
:104910006564384684F843B0C4F848B0FFF77FF9BF
:10492000C5F1070504F11800FFF779F9C4F84CB098
:104930002461A561646284F850B04A4641465046FD
:10494000FFF7D6F9206006B13460FFF7FBF9324B70
:10495000324E1A68DFF8F08001321A603568002D97
:104960004ED134601B68012B1DD108EB05001435B6
:10497000FFF74AF98C2DF8D1DFF8D090284D484642
:10498000FFF742F92846FFF73FF92648FFF73CF9C1
:104990002548FFF739F92548FFF736F9244BC3F8C6
:1049A0000090244B1D60244A244913680868013391
:1049B0001360E26A012505FA02F3034314200B6039
:1049C00000FB02803946FFF72DF9FFF7DDF91C4B9C
:1049D0001B6863B13368DA6AE36A9A4207D2194BFB
:1049E0004FF080521A60BFF34F8FBFF36F8F28468E
:1049F000BDE8F88F3846FFF791FB4FF0FF35F6E73B
:104A00000F4B1B68002BCED13368DA6AE36A9A42F7
:104A100098BF3460C7E700BF004D0020684C0020FD
:104A20002C4D00204C4D0020784D0020644D00207E
:104A30006C4C0020704C0020104D0020144D0020C4
:104A4000604D002004ED00E0744C0020184D002063
:104A500013B5174B01930024009423468022154977
:104A60001548FFF71FFF012814D14FF0500383F3BF
:104A70001188BFF36F8FBFF34F8F104B4FF0FF3292
:104A80001A600F4B18600F4B1C6002B0BDE810405D
:104A9000FFF7EAB9013008D14FF0500383F31188D2
:104AA000BFF36F8FBFF34F8FFEE702B010BD00BFA3
:104AB000404D00200D970008414D0008444D002056
:104AC000604D00208C4D0020024A136801331360B2
:104AD000704700BF0C4D0020014B1868704700BFA5
:104AE0008C4D00202DE9F84F3C4B1B68002B53D117
:104AF0003B4B1C6801341C60BCB93A4B1A68126805
:104B000042B14FF0500383F31188BFF36F8FBFF3AF
:104B10004F8FFEE7344A1968106818601160334AF5
:104B2000136801331360FFF75BFE314D314F2B6883
:104B30009C424FF0000B3ED3DFF8A880DFF8C49012
:104B4000D8F80020126872BB4FF0FF322A6032E0C2
:104B500006F1040A5046FFF788F8B16A19B106F168
:104B60001800FFF782F8F06AD9F80030012202FA43
:104B700000F11943204BC9F800104FF0140E5146B4
:104B80000EFB0030FFF74EF83868F16AC26A9142B6
:104B900028BF4FF0010BD3E7184A136801331360A5
:104BA0004FF0000B11E0D8F80020D268D668716889
:104BB0008C42CDD229603A680F4BD16A14224A4305
:104BC0009A58022A28BF4FF0010B0D4A1268002A9A
:104BD00018BF4FF0010B5846BDE8F88F0C4D002070
:104BE0008C4D00206C4C0020704C0020484D002063
:104BF000444D0020684C0020744C0020084D0020DB
:104C0000904D0020144D00202DE9F843314C2368CD
:104C100043B94FF0500383F31188BFF36F8FBFF395
:104C20004F8FFEE7FFF78EF82368013B236024686F
:104C30002CB10024FFF7A8F82046BDE8F883264BE6
:104C40001B68002BF5D0DFF8A890244FDFF8A48074
:104C5000D9F80030E3B90CB1FFF7C2FD204D2C6844
:104C600044B1204E0127FFF73DFF00B13760013C02
:104C7000F9D12C601B4B1B68002BDAD01A4B4FF07C
:104C800080521A60BFF34F8FBFF36F8F0124D1E7BB
:104C9000D9F80C30DC68261D04F11800FEF7E5FF9A
:104CA0003046FEF7E2FFE26A3968012505FA02F3B1
:104CB00014200B4300FB028031463B60FEF7B2FF3D
:104CC0000A4BE26A1B68DB6A9A4224BF054B1D60EF
:104CD000BEE700BF0C4D0020004D0020144D002009
:104CE000084D0020904D002004ED00E0684C0020AD
:104CF0004C4D0020744C002008B540B90E4B4FF0CD
:104D000080521A60BFF34F8FBFF36F8F08BD0B4BFC
:104D1000196841B14FF0500383F31188BFF36F8FCF
:104D2000BFF34F8FFEE7FFF7CFFEFFF76BFDFFF7F7
:104D30006BFF0028E2D008BD04ED00E00C4D002020
:104D400008B5174E174C236863B9174B1B68012B26
:104D5000F8D9164B4FF080521A60BFF34F8FBFF354
:104D60006F8FEFE7FFF7B0FE3568FFF74DFF002DBF
:104D7000E9D0FEF7E7FFF368DD68281DFEF775FF51
:104D80000B4A1368013B13602368013B2360FEF765
:104D9000FBFF286BFFF7C2F92846FFF7BFF9D2E700
:104DA000784D0020044D0020744C002004ED00E0FC
:104DB000004D002038B5234B1A68234B12B1012255
:104DC0001A6038BD214C1A6023681B6B1A68B2F157
:104DD000A53F0BD15A68B2F1A53F07D19A68B2F14D
:104DE000A53F03D1DB68B3F1A53F04D0206821685B
:104DF000343104F025F8164B1B68B3FA83F3DBB2A9
:104E0000C3F11F03142213495A4388188D5845B91A
:104E10004FF0500383F31188BFF36F8FBFF34F8FB1
:104E2000FEE7456808326D6845600A44954204BF54
:104E30006A684260142202FB03135B68DB6823602C
:104E400038BD00BF0C4D0020904D0020684C002064
:104E5000144D0020744C002010B50C4640B94FF0A2
:104E6000500383F31188BFF36F8FBFF34F8FFEE7BB
:104E7000054B19681831FEF7E1FE20460121BDE817
:104E80001040FFF7BFBC00BF684C002010B51446AF
:104E900040B94FF0500383F31188BFF36F8FBFF316
:104EA0004F8FFEE70D4B1B6843B94FF0500383F360
:104EB0001188BFF36F8FBFF34F8FFEE7084B1A685F
:104EC00041F00041916119681831FEF7ABFE2046B0
:104ED0000121BDE81040FFF795BC00BF0C4D00203C
:104EE000684C002038B5C368DC6844B94FF0500303
:104EF00083F31188BFF36F8FBFF34F8FFEE704F189
:104F000018052846FEF7B1FE114B1B68E3B9251DB5
:104F10002846FEF7AAFE0F49E26A0868012393407B
:104F200003430B600C4B1420294600FB0230FEF7B4
:104F300079FE0A4BE26A1B68DB6A9A4283BF084B20
:104F400001201860002038BD29460648EFE700BF61
:104F50000C4D0020144D0020744C0020684C0020A3
:104F6000904D00204C4D00201D4A126870B542B98A
:104F70004FF0500383F31188BFF36F8FBFF34F8F50
:104F8000FEE7C56841F00041016045B94FF05003AC
:104F900083F31188BFF36F8FBFF34F8FFEE72E1D92
:104FA000FEF763FE3046FEF760FE0E49EA6A0868C7
:104FB000012404FA02F303430B600B4B142000FBA3
:104FC00002303146FEF72EFE084BEA6A1B68DB6AA8
:104FD0009A4283BF064B20461C60002070BD00BF74
:104FE0000C4D0020144D0020744C0020684C002013
:104FF000904D002008B508B9FFF74AFC034B1B6829
:105000000360034B1B68436008BD00BF484D002090
:105010008C4D002038B50D46044640B94FF0500382
:1050200083F31188BFF36F8FBFF34F8FFEE741B952
:105030004FF0500383F31188BFF36F8FBFF34F8F8F
:10504000FEE7FEF77FFE0E4B19682B685A1C10D046
:105050000C4A206812689042626801D091420DD2D9
:10506000881A83420AD95B1A13442B602046FFF743
:10507000C1FF0024FEF788FE204638BD0124F9E771
:105080008C4D0020484D0020014B01221A607047D2
:10509000904D0020014B1868704700BF684C0020FD
:1050A000054B1B6833B1054B1B68002B0CBF02205E
:1050B0000020704701207047604D00200C4D0020FB
:1050C0002DE9F0410446002838D01D4DC36A2A68F6
:1050D000D26A934232D282691A4E002AA1BF2A684C
:1050E000D26AC2F1070282611427426907FB036397
:1050F0009A4220D100F104084046FEF7B6FD124A5C
:1051000048B9E06A4743F3592BB91368012181403C
:1051100023EA010313602B681168D86AE062012357
:1051200083400B4313601423414603FB0060BDE83A
:10513000F041FEF777BD2B68DB6AC362BDE8F08102
:10514000684C0020744C0020144D0020F8B5044633
:1051500008B90020F8BD224B1B68984208D04FF0D8
:10516000500383F31188BFF36F8FBFF34F8FFEE7B8
:10517000836C43B94FF0500383F31188BFF36F8FF3
:10518000BFF34F8FFEE7C16A426C013B91428364DB
:10519000DFD0002BDDD1051D2846FEF766FD114E40
:1051A000114A50B9E76A1421794373582BB913682F
:1051B0000120B84023EA00031360636CE362C3F18B
:1051C0000701A1611168012404FA03F0084310608B
:1051D000142000FB03602946FEF724FD2046F8BD9D
:1051E000684C0020744C0020144D0020044B1A68B9
:1051F00090691A681B68DB6AC3F107039361704703
:10520000684C0020044B1A681AB119688A6C013284
:105210008A641868704700BF684C002070B5164C4F
:1052200006460D46FEF78EFD2368DB6C7BB92368CE
:10523000012183F8501055B12846FFF7E3FA0F4BD0
:105240004FF080521A60BFF34F8FBFF36F8FFEF79E
:105250009BFDFEF777FD2368DD6C1DB123684EB121
:105260000022DA642368002283F85020FEF78CFDC8
:10527000284670BD6A1EF4E7684C002004ED00E08B
:105280002DE9F0410E46044640B94FF0500383F338
:105290001188BFF36F8FBFF34F8FFEE7FEF75AFE03
:1052A000EFF311874FF0500383F31188BFF36F8F33
:1052B000BFF34F8F022394F8505084F85030E36CC2
:1052C000EDB20133012DE36428D1A36A43B14FF05D
:1052D000500383F31188BFF36F8FBFF34F8FFEE747
:1052E000144B1B68F3B904F104084046FEF7BDFCFB
:1052F000114AE36A11689D400D4315600F4A14205E
:10530000414600FB0320FEF78DFC0D4BE26A1B6853
:10531000DB6A9A4202D9012346B1336087F31188D0
:10532000BDE8F08104F118010648ECE7064A136075
:10533000F4E700BF0C4D0020144D0020744C0020F9
:10534000684C00204C4D0020904D00202DE9F84F76
:10535000394B3A4A5B6952688A46594011420646BF
:1053600001D0002B66D14FF000084FF0FF37DFF877
:10537000D4904FF0FF0B3D46444659F8043C9A4503
:1053800011D1002E4AD006223146484603F062FF72
:10539000F8B92B4A0C2303FB04249623A3720123A0
:1053A000E372BDE8F88F2EB106223146484603F07D
:1053B00051FF80B199F806305B450ED30134062CBD
:1053C00009F10C09D9D1781C0AD0691C29D1B84639
:1053D00009E02546F2E72746F0E79B46A046EDE7C1
:1053E0006A1C00D0A8460C23154903FB08F3CA1811
:1053F00041F803A05EB104333068C850CC18B388BC
:10540000A380962393720123D372BDE8F88F0135F0
:1054100010D105239372D672BDE8F88F7B1C254608
:10542000E0D007480C236B43C1180022C2504A60E9
:105430008A60CCE7BDE8F88FB0010020DC4E002088
:10544000944D0020984D002070B5244D04466869A5
:1054500038B1A38AB3F5807F04D0B3F5007F36D08E
:10546000002070BDD4F826309842F9D104F1160618
:10547000E1693046FFF76AFF0222D4F82610627510
:10548000E26900239142237504F1200118D1144AE6
:10549000236210689288C4F8060062818B8084F8C9
:1054A000263084F8273084F8283084F8293028689A
:1054B000C4F81600AB88B3806B69E361022070BD4D
:1054C00033682362B3888B80C4F82620EFE7E16954
:1054D00004F11600FFF73AFFC2E700BFB001002059
:1054E0007797000803681A4A9342F0B506D1194B22
:1054F0001A680A609B888B800120F0BD5A1C03D07B
:10550000154C2269934201D1144BF1E7144A5269B8
:10551000DAB165685A402A4218BFA368ABB1114D91
:1055200000240C2606FB04F25759BB4207D1AB18E6
:10553000DB7A53B10432AB18A8580860DAE70134BB
:10554000062CEFD103600020F0BD0220F0BD00BFAB
:10555000E00000FC61970008DC4E0020779700080F
:10556000B0010020944D0020024B002202201A605E
:1055700000F0E8BDDC4D002083690F4A30B50146DC
:1055800002F12404184652F8045B40F8045BA2427E
:10559000F9D112880280094A1068C3F8060094887D
:1055A0005C81C3F816005C835269DA614A69C3F80A
:1055B00026202A23CB6130BD12970008B0010020BD
:1055C00038B5002105462A2003F0F0FB044640B11F
:1055D0004561FFF7D1FF20460121BDE83840FDF7C6
:1055E00095B938BD38B5134C04F14805A37A6BB1B1
:1055F000013BE27ADBB2A3721AB92068FFF7E0FF41
:1056000001E0032BF9D9A37A03B923600C34AC422F
:10561000ECD1094CFFF760FA2268054622B1821AE4
:1056200044F620639A4204D9044B5869FFF7C8FF37
:10563000256038BD944D0020DC4D0020B0010020D5
:105640002DE9F04F87B00823039303AB0193494C36
:1056500004AB009306460123002202A9206A01F050
:10566000BDF8071E40F38380029D434BD5F8EC2024
:105670009A4207D00024284600F098FC204607B044
:10568000BDE8F08F2B78022BF4D123686A681BBA2F
:105690009A42EFD10622394905F11C0003F0DAFDE8
:1056A0000028E7D1A7F1020EDFF8D4C005F1F0021F
:1056B000AE445FFA86F881464FF47A7A724510D28A
:1056C0001778FF2F0DD00FB90132F7E7062F517869
:1056D000D2F802303CD00AD8012F2DD0032F32D07F
:1056E00071BB0128C6D92B6963600124C3E7352F3C
:1056F00016D0362F2FD0332FF2D10429F0D11F0E20
:1057000047EA036B1F0207F47F071B0A4BEA0707F0
:1057100003F47F433B435B080AFB03F3E3600FE0C2
:105720009378434501D10130DAE7062BD8D1052E15
:10573000D6D184F81C90D3E70429D1D1CCF8043019
:1057400002310A44BAE70429CAD1CCF80830F7E795
:10575000CCF80C30C4E70429C2D1022E02D10130AA
:10576000A360EDE7A768BB42EAD10130E8E7002477
:1057700084E700BFE04D002063825363B001002046
:10578000DC4E002070B5164C86B0256A00230393CA
:1057900025BB02211122084600F0A2FF431C206213
:1057A0001BD0042603AB2A462946009601F00CFBC9
:1057B00003AB012229460096206A01F005FB4FF455
:1057C0008843ADF8123008222B4604A9206A01F064
:1057D00019F918B1206A01F08FF9256206B070BD81
:1057E000E04D00202DE9F84F17688B46154680469E
:1057F00003F0F0FB8246FAF7F3FCF3370646074462
:105800004FF0FF31384600F0A7FB04460028F7D0E0
:10581000F122002103F052FD012323706370274A17
:105820000623A37013681BBA636063236FF07D01C6
:1058300084F8EC3084F8EF30936984F8ED1053214C
:1058400084F8EE10BBB36FF07F03A3720023DFF880
:105850007090E372D9F80000B9F80430E061238455
:105860002A68594604F1F00003F003FD2B68EF337A
:10587000E7180C22E25451467E703246B81C374479
:1058800003F0F7FCFF23BB70286802303044286027
:10589000D9F80000C4F8F500B9F80430A4F8F930DC
:1058A0004FF0FF33C8F804304FF48643A8F80230B5
:1058B0002046BDE8F88FA372C9E700BFE04D002085
:1058C000B001002030B587B006AA182304AD42F815
:1058D0000C3D0E492846FFF785FF04460C48039A05
:1058E0004368C4F8FD308368C4F80331082301938A
:1058F00000950123F1322146006A01F013F810B936
:10590000204600F053FB07B030BD00BF49970008A8
:10591000E04D002030B587B006AA112304AD42F84F
:105920000C3D0B492846FFF75DFF08230446039A08
:1059300001930146074800950123F132006A00F007
:10594000F1FF10B9204600F031FB07B030BD00BFB9
:1059500038970008E04D0020024B1B6A1B1A584282
:1059600058417047E04D002038B5624C08B1002323
:105970002377237F042B00F2BC80DFE803F00325AC
:10598000508E9E002368E3B903F028FB206041F2AB
:10599000883300256361A5616560A560FFF7F2FEAD
:1059A000FA2000F021FE236A002B00F09080524B79
:1059B0005D61FFF791F82061FFF7ACFF01232377CA
:1059C00038BD01332360E2E70220FFF739FE0128EA
:1059D00009D1FFF781F841F2883363612061FFF755
:1059E00071FF0223EBE7FFF777F822696369801AFA
:1059F00098427ED95B0047F230529342636166D889
:105A0000236801332360FFF767F8A3692061B3FAC5
:105A100083F35B09A361BDE83840FFF77BBF052036
:105A2000FFF70EFE012822D1334A63685361334ADF
:105A3000516863EA010313610323237700F0B6FB87
:105A4000206A01F059F800232362E36843B92C4B24
:105A5000E360FFF789FDE068BDE8384000F0C4BDB1
:105A60004EF65F229342F4D84EF66023F0E7FFF73C
:105A700033F822696369801A98423AD95B0047F289
:105A800030529342636106D8FFF726F82061BDE8E3
:105A90003840FFF717BF002391E7FFF773FE236A33
:105AA0003BB3FFF719F841F2883320616361FFF7D8
:105AB00009FF02232377FA20CEE70020BDE8384013
:105AC00000F086BD01F018F80023236238BDFEF710
:105AD00039F90A4B1A68084B5A61FEF755F9042345
